S01700004469676974616C4D6F76654E5333302E73726563B4
S21400000000800010D1220000052300000723000016
S214000010092300000B2300000D2300000000000051
S2140000200000000000000000000000000F23000099
S2140000301123000000000000132300001523000019
S214000040192300001B2300001D2300001F230000AF
S214000050212300002323000025230000272300007F
S214000060292300002B2300002D2300002F2300004F
S214000070312300003323000035230000372300001F
S214000080392300003B2300003D2300003F230000EF
S21400009041230000432300004523000047230000BF
S2140000A0492300004B2300004D2300004F2300008F
S2140000B0512300005323000055230000572300005F
S2140000C0592300005B2300005D23000010B5054C9B
S2140000D0237833B9044B13B10448AFF300800123EF
S2140000E0237010BDA00A001000000000C418010014
S2140000F00C4B43B10C4810B50C49AFF300800C48CC
S214000100036823B910BD0A48036833B97047094B22
S214000110002BF7D0BDE810401847064B002BF5D053
S214000120184700BF00000000C4180100A40A001011
S214000130A00A001000000000154B002B08BF134B50
S2140001409D46A3F5803A00218B460F461348144A75
S214000150121A06F03BFA0F4B002B00D098470E4BB6
S214000160002B00D098470020002104000D000D4809
S214000170002802D00C480AF05DFE05F0ADFD200018
S214000180290000F0B2FE02F08DFD00BF000008005E
S214000190008000100000000000000000A00A001010
S2140001A0C815001035AE0000D5BD000080B483B081
S2140001B000AF786039603B68002B05D07B68DB6851
S2140001C07A6852681A6004E07B681B697A6852682D
S2140001D01A6000BF0C37BD4680BC704780B582B041
S2140001E000AF78600B46FB707B68FA7811461846BD
S2140001F002F02AF900BF0837BD4680BD80B582B040
S21400020000AF786039607B6839681846FFF7CEFF24
S21400021000BF0837BD4680BD80B582B000AF7860AD
S214000220396039687868FFF7E9FF7B681846083751
S214000230BD4680BD80B500AF72B600F007F800F08E
S2140002405DF801F0B9F962B600BF80BD80B500AFB9
S21400025000211C48FFF7E0FF00211B48FFF7DCFFEA
S21400026000211A48FFF7D8FF00211948FFF7D4FFEE
S2140002700321184802F032FE03211748FFF7AEFFAD
S2140002800321164802F02AFE03211548FFF7A6FFB1
S2140002900021144802F022FE01211348FFF7BCFF9C
S2140002A012490C4802F01EFE11490C4802F01AFED4
S2140002B010490C4802F02EFE0F490A4802F012FEC2
S2140002C000BF80BDC00E0010D80E0010F00E00104B
S2140002D0080F0010200F0010800F0010980F00105D
S2140002E0F80F00101010001070100010510F0000D2
S2140002F0B90F000079100000A910000080B500AF0B
S214000300D02200210A4806F061F94FF41C72002141
S214000310084806F05BF914220021074806F056F953
S214000320064B00221A70064B00225A7000BF80BD92
S214000330C00A0010900B0010000E0010380E0010BF
S214000340140E001080B500AF01F0B4FA084B1B780D
S21400035023F07F03DBB2002B07D0054A13786FF338
S214000360C7131370034800F007F800BF80BD00BF36
S214000370B41100107411001080B586B000AF78601C
S2140003802C4B7B617B691B6893F900301A467B68AF
S21400039001331B789A4240D17B691B68013393F97D
S2140003A000301A467B6802331B789A4235D17B6848
S2140003B01B78522B02D0572B13D036E07B699B68F4
S2140003C03B613B69002B24D07B685A1C3B69104676
S2140003D09847194B1B7843F00103DAB2164B1A7094
S2140003E017E07B695B68FB60FB68002B13D07B68BB
S2140003F0DA1CFB68104698477B680133184600F005
S21400040043FC0D4B1B7843F00103DAB20A4B1A701B
S21400041001E000BF09E000BF07E07B690C337B61A9
S2140004207B691B68002B00D0ACE700BF1837BD46C1
S21400043080BD00BF240D0100BD0E001090B589B030
S21400044000AF7860654B3B613B695A1C3A617A683D
S214000450511C796012781A703B695A1C3A617A68A6
S214000460511C796012781A705D4BFB603C69631C06
S2140004703B61FB681B781B11DBB2184601F02AFDB6
S214000480034623703C69631C3B61FB685A1CFA6098
S2140004901B78184601F01EFD034623703C69631C5A
S2140004A03B61FB681B781B11DBB2184601F012FD9E
S2140004B0034623703C69631C3B61FB685A1CFA6068
S2140004C01B78184601F006FD034623703C69631C42
S2140004D03B61FB681B781B11DBB2184601F0FAFC87
S2140004E0034623703C69631C3B61FB685A1CFA6038
S2140004F01B78184601F0EEFC03462370394BFB616F
S214000500394BBB61364B1B7803F04003DBB2002B44
S21400051007D0BB691A1DBA611B6823F07F437B6155
S21400052004E0FB695B6823F07F437B613C69631CE6
S2140005303B617B691B0DDBB2184601F0CBFC034622
S21400054023703C69631C3B617B691B0CDBB218465D
S21400055001F0C0FC034623703C69631C3B617B6969
S2140005601B0BDBB2184601F0B5FC034623703C6952
S214000570631C3B617B691B0ADBB2184601F0AAFCD0
S214000580034623703C69631C3B617B691B09DBB235
S214000590184601F09FFC034623703C69631C3B61D0
S2140005A07B69DBB2184601F095FC03462370FB69B5
S2140005B00833FB61FB691B68002B00D0A2E73B6990
S2140005C000221A7072B6064A13786FF386131370F9
S2140005D062B600BF2437BD4690BD00BF3C0E00107B
S2140005E0000E0010C00A0010040E001080B582B085
S2140005F000AF786000F02CFB00BF0837BD4680BD1A
S21400060080B584B000AF78607B685A1C7A601B782F
S214000610184601F03BFC0346FB73FB7B1B01FB7398
S2140006207B685A1C7A601B78184601F02FFC03463C
S2140006301A46FB7B1343FB73FB7BDB00384A1344F1
S214000640BB607B685A1C7A601B78184601F01EFC5B
S21400065003461A46BB681A60BB681B681A01BB686B
S2140006601A607B685A1C7A601B78184601F00EFCEC
S21400067003461A46BB681B681A43BB681A60BB6809
S2140006801B681A01BB681A607B685A1C7A601B7864
S214000690184601F0FBFB03461A46BB681B681A4364
S2140006A0BB681A60BB681B681A01BB681A607B6867
S2140006B05A1C7A601B78184601F0E8FB03461A4677
S2140006C0BB681B681A43BB681A60BB681B681A01C4
S2140006D0BB681A607B685A1C7A601B78184601F063
S2140006E0D5FB03461A46BB681B681A43BB681A60EC
S2140006F0BB681B681A01BB681A607B685A1C7A6064
S2140007001B78184601F0C2FB03461A46BB681B68F6
S2140007101A43BB681A6000BF1037BD4680BD00BFD5
S214000720C00A001080B584B000AF78607B685A1CA1
S2140007307A601B78184601F0A9FB0346FB73FB7B27
S2140007401B01FB737B685A1C7A601B78184601F005
S2140007509DFB03461A46FB7B1343FB73FA7B13464B
S2140007605B001344DB00A54A1344BB607B685A1C3D
S2140007707A601B78184601F089FB03461A46BB6868
S2140007809A74BB689B7C1B01DAB2BB689A747B6860
S2140007905A1C7A601B78184601F078FB03461A4606
S2140007A0BB689B7C1343DAB2BB689A747B685A1C9E
S2140007B07A601B78184601F069FB03461A46BB6848
S2140007C01A60BB681B681A01BB681A607B685A1CF3
S2140007D07A601B78184601F059FB03461A46BB6838
S2140007E01B681A43BB681A60BB681B681A01BB68A3
S2140007F01A607B685A1C7A601B78184601F046FB24
S21400080003461A46BB681B681A43BB681A60BB6877
S2140008101B681A01BB681A607B685A1C7A601B78D2
S214000820184601F033FB03461A46BB681B681A439A
S214000830BB681A60BB681B681A01BB681A607B68D5
S2140008405A1C7A601B78184601F020FB03461A46AD
S214000850BB681B681A43BB681A60BB681B681A0132
S214000860BB681A607B685A1C7A601B78184601F0D1
S2140008700DFB03461A46BB681B681A43BB681A6022
S2140008807B685A1C7A601B78184601F0FFFA03460C
S2140008901A46BB685A60BB685B681A01BB685A6038
S2140008A07B685A1C7A601B78184601F0EFFA0346FC
S2140008B01A46BB685B681A43BB685A60BB685B68CD
S2140008C01A01BB685A607B685A1C7A601B78184607
S2140008D001F0DCFA03461A46BB685B681A43BB683D
S2140008E05A60BB685B681A01BB685A607B685A1C12
S2140008F07A601B78184601F0C9FA03461A46BB68A8
S2140009005B681A43BB685A60BB685B681A01BB68C1
S2140009105A607B685A1C7A601B78184601F0B6FA53
S21400092003461A46BB685B681A43BB685A60BB68D6
S2140009305B681A01BB685A607B685A1C7A601B7831
S214000940184601F0A3FA03461A46BB685B681A43CA
S214000950BB685A607B685A1C7A601B78184601F0A0
S21400096095FA03461A46BB68DA74BB68DB7C1B0143
S214000970DAB2BB68DA747B685A1C7A601B78184651
S21400098001F084FA03461A46BB68DB7C1343DAB2EE
S214000990BB68DA747B685A1C7A601B78184601F0CC
S2140009A075FA03461A46BB681A75BB681B7D1B01A1
S2140009B0DAB2BB681A757B685A1C7A601B781846D0
S2140009C001F064FA03461A46BB681B7D1343DAB28D
S2140009D0BB681A757B685A1C7A601B78184601F04B
S2140009E055FA03469AB2BB681A82BB681B8A1B017B
S2140009F09AB2BB681A827B6802E000BF900B0010B8
S214000A005A1C7A601B78184601F040FA03461946CD
S214000A10BB681A8A8BB213439AB2BB681A82BB6849
S214000A201B8A1B019AB2BB681A827B685A1C7A60C2
S214000A301B78184601F02AFA03461946BB681A8A3C
S214000A408BB213439AB2BB681A82BB681B8A1B011F
S214000A509AB2BB681A827B685A1C7A601B78184662
S214000A6001F014FA03461946BB681A8A8BB2134380
S214000A709AB2BB681A82BB681B8A1B019AB2BB6813
S214000A801A827B685A1C7A601B78184601F0FEF9B9
S214000A9003461946BB681A8A8BB213439AB2BB68E0
S214000AA01A82BB681B8A1B019AB2BB681A827B68D3
S214000AB05A1C7A601B78184601F0E8F90346194676
S214000AC0BB681A8A8BB213439AB2BB681A8200BFFD
S214000AD01037BD4680BD00BF80B582B000AF7860DD
S214000AE000F0B6F800BF0837BD4680BD80B586B0BA
S214000AF000AF78607B685A1C7A601B78184601F055
S214000B00C5F90346FB75FB7D1B01FB757B685A1C0C
S214000B107A601B78184601F0B9F903461A46FB7D41
S214000B201343FB757B685A1C7A601B78BB757B6821
S214000B305A1C7A601B78184601F0A8F903463B61F8
S214000B403B691B013B617B685A1C7A601B78184620
S214000B5001F09CF903461A463B6913433B613B6927
S214000B601B013B617B685A1C7A601B78184601F0B3
S214000B708DF903461A463B6913433B613B691B01EB
S214000B803B617B685A1C7A601B78184601F07EF938
S214000B9003461A463B6913433B613B691B013B61B5
S214000BA07B685A1C7A601B78184601F06FF903467A
S214000BB01A463B6913433B613B691B013B617B68FB
S214000BC05A1C7A601B78184601F060F903461A46EC
S214000BD03B6913433B6172B6FB7DDB001B4A134443
S214000BE0FB60BB7D2B2B14D1FB685B683A69134412
S214000BF03B61FB681A683B699A4206D8FB681B682B
S214000C003A69D21AFB685A601AE0FB683A695A6079
S214000C1016E0FB685A683B699A420BD2FB685B6831
S214000C203A69D31A3B61FB681A683B69D21AFB68BB
S214000C305A6005E0FB685A683B69D21AFB685A603E
S214000C4062B600BF1837BD4680BD00BFC00A0010A0
S214000C5080B483B000AF0A4B7B607B6800225A608A
S214000C607B6808337B607B681B68002B00D0F4E74A
S214000C70044B05225A7000BF0C37BD4680BC704737
S214000C80C00A0010140E001080B485B000AF786063
S214000C900B4BFB60FB685A1CFA607A68511C796043
S214000CA012781A70FB685A1CFA607A6812781A7002
S214000CB0FB6800221A7000BF1437BD4680BC704720
S214000CC03C0E001080B500AF094B1B7803F0010303
S214000CD0002B09D0064B1B7823F00103DAB2044B35
S214000CE01A70044800F08EFF00F024FE00BF80BD9E
S214000CF0BD0E00103C0E001080B582B000AF7860CC
S214000D0039607B6800223968184601F0B3FB7B68BF
S214000D1018460837BD4680BD80B582B000AF786003
S214000D2039607B6801223968184601F0A3FB7B68AE
S214000D3018460837BD4680BD80B582B000AF7860E3
S214000D4039607B68012B53D13B684FF6FF729342A4
S214000D504ED129492948FFF7DFFF29492948FFF7DF
S214000D60DBFF29492948FFF7D7FF29492948FFF71C
S214000D70D3FF2949294802F08FF8294A29492748EC
S214000D8002F06CFE28492948FFF7B6FF2849294893
S214000D9002F082F8224A2349264802F05FFE2649DE
S214000DA02648FFF7A9FF2649264802F075F81C4A90
S214000DB01C49244802F052FE23492448FFF7ACFFA2
S214000DC023492448FFF798FF23492448FFF794FF58
S214000DD023492448FFF790FF23492448FFF78CFF58
S214000DE023492448FFF788FF23492448FFF784FF58
S214000DF000BF0837BD4680BD32C00920C00E0010B7
S214000E0034C00920D80E001035C00920F00E00109E
S214000E1037C00920080F001009C00920200F001055
S214000E20C80000106D2E000008C00920800F0010BA
S214000E3007C00920980F001006C00920F80F001000
S214000E400FC009201010001018C0092070100010E4
S214000E5000C009208810001001C00920A010001052
S214000E6012C00920B810001011C00920D0100010C0
S214000E7010C00920E810001017C00920001100104B
S214000E8080B500AF4FF6FF710120FFF755FF80BD1C
S214000E9080B483B000AF78607B685B691A687B6853
S214000EA05B681340002B01D0012300E000231846A6
S214000EB00C37BD4680BC704780B582B000AF786006
S214000EC07B681846FFF7E4FF034618460837BD461A
S214000ED080BD80B582B000AF78607868FFF7ECFF21
S214000EE0034618460837BD4680BD80B500AFFFF7FD
S214000EF0A1F9FFF727FAFFF7E5FE00F001F8F8E79B
S214000F0080B500AF104B1B7803F00103DBB2002B5B
S214000F1018D072B60C4A13786FF3000313700B4B9D
S214000F201B78C3F30113DBB2002B02D0012B04D0D5
S214000F3007E0012000F0BEF803E0002000F0BAF859
S214000F4000BF62B600BF80BDBC0A0010340E0010A1
S214000F5080B582B000AF154801F0F4FF0346002BC1
S214000F600CBF01230023DBB2002B1AD1104B7B6091
S214000F707B681B68002B15D00E48FFF7AAFF0346B8
S214000F80002B0CBF01230023DBB2002B04D0012171
S214000F90786800F045F805E00021786800F040F831
S214000FA000E000BF0837BD4680BD00BF200F001020
S214000FB0C00A0010800F001080B582B000AF154840
S214000FC001F0C0FF0346002B0CBF01230023DBB259
S214000FD0002B1AD1104B7B607B681B68002B15D04A
S214000FE00E48FFF776FF0346002B0CBF01230023B5
S214000FF0DBB2002B04D00121786800F011F805E080
S2140010000021786800F00CF800E000BF0837BD4605
S21400101080BD00BF980F0010C80A0010F80F00101F
S21400102080B483B000AF78600B46FB70FB78002B73
S2140010300FD07B685B685A1C7B685A607B685A686E
S2140010407B681B68013B9A4210D97B6800225A6075
S2140010500CE07B685B68002B03D17B681A687B68B2
S2140010605A607B685B685A1E7B685A6000BF0C3704
S214001070BD4680BC7047000080B500AF094B1B78AA
S214001080C3F30103DBB2002B02D0012B04D007E030
S214001090002000F00FF803E0012000F00BF800BF7E
S2140010A000BF80BD380E001080B500AF00F04CF8D1
S2140010B000BF80BD80B582B000AF0346FB711D4BFC
S2140010C05B681D4A53601B4BDB681B4A9360FB79C9
S2140010D003F00303D9B2184A137861F301031370BF
S2140010E0154A137843F040031370134A13786FF3CE
S2140010F0C7131370104800F03DF80346002B0ED0BF
S21400110000210E48FFF788F801210D48FFF784F804
S214001110094B9B780133DAB2074B9A7002E0064B14
S21400112000229A7001210748FFF776F800BF0837BB
S214001130BD4680BDC00A0010000E001070100010E2
S214001140D80E0010C00E001080B500AF0121064872
S214001150FFF762F800210548FFF75EF80021044813
S214001160FFF75AF800BF80BD70100010D80E0010B0
S214001170C00E001080B584B000AF78604E4BFB60A8
S2140011807B681B7803F00303DBB2002B33D1FB68CC
S214001190DB7C002B27D1FB681533184600F072F96C
S2140011A003461A467B685A70FB689B7C1A46434B7C
S2140011B053F82220FB685B7D19460B465B000B4408
S2140011C01344BB60BB685B78002B0CD0B968F8682A
S2140011D000F078F8034603F00103D9B27A68137872
S2140011E061F3C7131370FB681833FB60FB681B685A
S2140011F0002B52D0CBE7FB68DB7C012B42D1FB688F
S2140012001533184600F03EF903461A467B685A70B6
S214001210FB689B7C1A462A4B53F82220FB685B7DB2
S21400122019460B465B000B441344BB60BB685B78F7
S214001230002B27D0B968F86800F0A8F8034603F03A
S2140012400103D9B27A68137861F3C71313707B6809
S2140012501B7823F07F03DBB2002B1BD0B968F8683D
S21400126000F030F8034603F00103D9B27A68137829
S21400127061F3C71313707B681B7823F07F03DBB220
S214001280002B09D0FB681833FB60FB681B68002B3B
S21400129003D0B0E700BF00E000BF7B681B7823F0F8
S2140012A07F03DBB2002B14BF01230023DBB21846FA
S2140012B01037BD4680BD00BF900B0010380E0100F1
S2140012C0480E010080B485B000AF78603960002316
S2140012D0FB737B685A687B681B6813443A6892788D
S2140012E013447A681268B3FBF2F102FB01F29A1A11
S2140012F07B689A607B685A687B681B6813443A6808
S21400130012789B1A7A681268B3FBF2F102FB01F2BC
S2140013109A1A7B68DA607B689B7C1B4ADB00134466
S2140013205B687A681268B3FBF2F102FB01F29B1A63
S214001330BB607B68DA687B689B689A420FD87B68DC
S214001340DA68BB689A4207D87B689A68BB689A4294
S21400135002D30123FB7311E00023FB730EE07B68CE
S214001360DA68BB689A4204D97B689A68BB689A4276
S21400137002D30123FB7301E00023FB73FB7B1846BB
S2140013801437BD4680BC7047C00A001080B487B0D2
S21400139000AF786039607B681B7D002B01D101238C
S2140013A066E07B685A687B681B6813443A689278E4
S2140013B013447A681268B3FBF2F102FB01F29A1A40
S2140013C07B689A607B685A687B681B6813443A6837
S2140013D012789B1A7A681268B3FBF2F102FB01F2EC
S2140013E09A1A7B68DA607B689B7C244ADB0013448D
S2140013F05B681A092249A1FB02124FF4347101FB03
S21400140002F29B1AFB607B68DA687B689B689A42EC
S21400141019D87B685B681E2B0AD87B68DB6803F5E7
S21400142025737B617B689B6803F525733B6114E03D
S2140014307B68DB6803F516737B617B689B6803F546
S21400144016733B6109E07B68DB6803F516737B6106
S2140014507B689B6803F525733B61FA687B699A4253
S21400146005D3FA683B699A4201D8002300E00123BD
S21400147018461C37BD4680BC704700BFC00A001027
S214001480065BB00580B582B000AF7860786800F083
S21400149007F87B681B7818460837BD4680BD0000F5
S2140014A080B588B000AF786007F108033B4918465E
S2140014B0FFF732FC07F1080300211846FEF7ACFEE2
S2140014C07A6813786FF3C71313707A6813786FF31C
S2140014D0861313703248FFF7FCFC0346DBB203F0BA
S2140014E00103D9B27A68137861F3451313702D4857
S2140014F0FFF7EFFC0346DBB203F00103D9B27A68CC
S214001500137861F3041313702748FFF7E2FC0346D1
S214001510DBB203F00103D9B27A68137861F3C30330
S21400152013702248FFF7D5FC0346DBB203F0010335
S214001530D9B27A68137861F3820313701C48FFF7F8
S214001540C8FC0346DBB2DB43DBB203F00103D9B2CF
S2140015507A68137861F3410313701648FFF7B9FCF5
S2140015600346DBB2DB43DBB203F00103D9B27A6891
S214001570137861F3000313707B681B78C3F13F0395
S214001580DAB27B681A7007F1080301211846FEF7E5
S21400159043FE00BF2037BD4680BD00BF3FC00920C8
S2140015A0D0100010B8100010A01000108810001006
S2140015B000110010E810001080B500AF084B0122A3
S2140015C01A70074B02221A704FF4E131054801F0F9
S2140015D007FD00220449034801F00AFD00BF80BD54
S2140015E04813001030110010ED15000080B500AF54
S2140015F00D4801F0F5FD0346DAB20C4B1A700C4BA1
S2140016001B78022B07D0032B08D0012B00D008E054
S21400161000F010F805E000F02DF802E000F06EF89B
S21400162000BF00BF80BD00BF181100104913001096
S2140016304813001080B500AF0A4B1B78022B02D06F
S214001640032B0AD00CE0084B00221A80074B00221E
S2140016501A70074B02221A7002E000F08BF800BFE7
S21400166000BF80BD49130010461300104A13001037
S2140016704813001080B500AF1B4B1A781B4B1B7825
S2140016805340DAB2184B1A70184B1B78022B02D054
S214001690032B03D010E0FFF7CDFF22E0144B1B888E
S2140016A03F2B05DC124B1B881A46124B002199541F
S2140016B0114B03221A7014E00D4B1B883F2B0DDCD8
S2140016C00B4B1B881A46094B19780A4B9954084B42
S2140016D01B8801339AB2064B1A8001E000F04AF8E4
S2140016E000BF00BF80BD00BF4A13001049130010A2
S2140016F046130010BC1100104813001080B582B0CD
S21400170000AF00F02FF80346FB71114B1A78114B0F
S2140017101B789A420CD1FB79002B05D10E4B062282
S2140017201A700E4B04221A700D4800F081F908E07A
S214001730FB79002B05D1084B15221A70074B0422A3
S2140017401A7000F017F800BF0837BD4680BD00BF0E
S2140017504A130010491300105513001059130010B7
S214001760BC11001080B400AFFF231846BD4680BCF5
S2140017707047000080B400AF074B00221A80074B6A
S21400178000221A70064B00221A70064B01221A70AD
S21400179000BFBD4680BC7047461300104A130010B9
S2140017A0571300104813001080B500AF134B1B787A
S2140017B01A46134B1B789A4216DA104B1B785A1CA3
S2140017C0D1B20E4A11701A460E4B9A5C0E4B1A7026
S2140017D001220E490E4801F00BFC0B4B1B781946F4
S2140017E00C4801F0F1FC06E001220021084801F057
S2140017F0FFFB00F047F800BF80BD00BF5413001089
S21400180053130010FC11001052130010A91700000B
S214001810301100101811001080B500AF124A13786E
S21400182043F080031370104A13786FF300031370AD
S2140018300E4B00221A700D4B1B785A1CD1B20B4A65
S21400184011701A460A4B9A5C0A4B1A7001220A4912
S2140018500A4801F0CDFB074B1B781946084801F0F3
S214001860B3FC00BF80BD00BFB811001054130010B9
S214001870FC11001052130010A917000030110010C0
S2140018801811001080B400AF074B00221A70074AE8
S21400189013786FF3C7131370054B00221A7000BF3E
S2140018A0BD4680BC704700BF58130010B81100102A
S2140018B05613001080B582B000AF1B4B1B88002B60
S2140018C02DD01A4B3B600023FB8000F00BF903463B
S2140018D01A463B681A703B681B78002B0ED03B6894
S2140018E001333B60FB880133FB80FB883F2BD4BF72
S2140018F001230023DBB2002B01D0E6E700BF0A4B32
S2140019001B881BB2002B05DB094A137843F08003C3
S214001910137005E072B600F061F962B600E000BF31
S2140019200837BD4680BD00BF441300107411001078
S214001930B411001080B500AF0F4B1B7823F07F0367
S214001940DBB2002B11D10D4B1B78002B0FD10C4BAB
S2140019501B88002B0DD000F017F872B6094B00223A
S2140019601A70FFF759FF62B604E000BF02E000BF3E
S21400197000E000BF80BD00BFB81100105913001072
S214001980501300105613001080B582B000AF03232A
S214001990FB70244B03221A70234B7B607B685A1C17
S2140019A07A6002221A700023BB7000F085F90346A5
S2140019B01A467B681A707B681B78002B19D07B68E8
S2140019C01A78FB785340FB707B6801337B60154BBD
S2140019D01B780133DAB2134B1A70BB780133BB7035
S2140019E0BB783F2BD4BF01230023DBB2002B01D0F2
S2140019F0DBE700BF7B685A1C7A6003221A707B689C
S214001A005A1C7A60FA781A707B6800221A70074BA4
S214001A101B881BB2002B01DA00F0C8F900BF08379C
S214001A20BD4680BD53130010FC110010501300106B
S214001A3080B584B000AF78600023FB817B681B789C
S214001A40002B12D07B685A1C7A601B78184600F070
S214001A5015F8FB890133FB81FB893F2BD4BF01239B
S214001A600023DBB2002B01D0E8E700BF002000F027
S214001A7005F800BF1037BD4680BD000080B582B0B7
S214001A8000AF0346FB71144B1B887F2B01DD00F073
S214001A9059F8124B1B881946114AFB7953540F4BC1
S214001AA01B8801339AB20D4B1A800C4B1B887F2B78
S214001AB0CCBF01230023DBB2002B02D0074B002251
S214001AC01A80054B1B8801339AB2034B1A8000BF5D
S214001AD00837BD4680BD00BF4413001040130010F9
S214001AE04012001080B483B000AF72B6124B1B8851
S214001AF01A46124B9B5CFB710F4B1B8801339AB244
S214001B000D4B1A800C4B1B887F2BCCBF0123002368
S214001B10DBB2002B02D0084B00221A80084B1B8831
S214001B20013B9AB2064B1A8062B6FB7918460C3710
S214001B30BD4680BC704700BF421300104012001024
S214001B404413001080B500AF214B1B8801339AB2B6
S214001B501F4B1A801E4B1B887F2BCCBF01230023F4
S214001B60DBB2002B02D01A4B00221A80194B1B88BE
S214001B70013B9AB2174B1A80164B1B881BB29BB2BE
S214001B80DB0BDBB2002B02D000F028F81FE0104B76
S214001B901B881A46104B9B5C002B00D0D4E70C4BDE
S214001BA01B8801339AB20A4B1A80094B1B887F2B7D
S214001BB0CCBF01230023DBB2002B02D0044B002253
S214001BC01A80044B1B88013B9AB2024B1A8080BDD8
S214001BD042130010441300104012001080B400AFEF
S214001BE0054B00221A80054B1A88054B1A8000BF49
S214001BF0BD4680BC704700BF441300104013001061
S214001C004213001080B584B000AF78600023FB81DB
S214001C107B681B78002B12D07B685A1C7A601B7876
S214001C20184600F015F8FB890133FB81FB893F2B32
S214001C30D4BF01230023DBB2002B01D0E8E700BFAE
S214001C40002000F005F800BF1037BD4680BD00003C
S214001C5080B582B000AF0346FB71144B1B887F2B08
S214001C6001DD00F057F8124B1B881946114AFB7924
S214001C7053540F4B1B8801339AB20D4B1A800C4BF2
S214001C801B887F2BCCBF01230023DBB2002B02D0A6
S214001C90074B00221A80054B1B8801339AB2034B70
S214001CA01A8000BF0837BD4680BD00BF5013001025
S214001CB04C130010C012001080B483B000AF124B5B
S214001CC01B881A46114B9B5CFB710F4B1B8801331C
S214001CD09AB20D4B1A800C4B1B887F2BCCBF01236E
S214001CE00023DBB2002B02D0074B00221A80084BE1
S214001CF01B88013B9AB2064B1A80FB7918460C37B4
S214001D00BD4680BC704700BF4E130010C0120010C6
S214001D105013001080B500AF214B1B8801339AB2D8
S214001D201F4B1A801E4B1B887F2BCCBF0123002322
S214001D30DBB2002B02D01A4B00221A80194B1B88EC
S214001D40013B9AB2174B1A80164B1B881BB29BB2EC
S214001D50DB0BDBB2002B02D000F028F81FE0104BA4
S214001D601B881A46104B9B5C002B00D0D4E70C4B0C
S214001D701B8801339AB20A4B1A80094B1B887F2BAB
S214001D80CCBF01230023DBB2002B02D0044B002281
S214001D901A80044B1B88013B9AB2024B1A8080BD06
S214001DA04E13001050130010C012001080B400AF85
S214001DB0054B00221A80054B1A88054B1A8000BF77
S214001DC0BD4680BC704700BF501300104C13001077
S214001DD04E13001080B582B000AF7860074A7B686B
S214001DE01A60074A7B685A607B68184601F0A2F9B9
S214001DF07B6818460837BD4680BD00BF001101004D
S214001E0034110100A0F10400E4E700BF80B582B001
S214001E1000AF78607868FFF7DDFF786802F042FB75
S214001E207B6818460837BD4680BDA0F10400EDE784
S214001E3080B582B000AF786039607B68012B0FD127
S214001E403B684FF6FF7293420AD10023064A0749C1
S214001E50074801F087F8074A0749054801F0FEFDE4
S214001E6000BF0837BD4680BD03C0092002C0092058
S214001E7018110010C8000010D51D000080B500AF76
S214001E804FF6FF710120FFF7D3FF80BD80B485B009
S214001E9000AF0346FB71FF23FB73FB792F2B06DD98
S214001EA0FB79392B03DCFB79303BFB730CE0FB79C9
S214001EB023F02003FB71FB79402B05DDFB79462BD5
S214001EC002DCFB79373BFB73FB7B18461437BD46B9
S214001ED080BC704780B483B000AF0346FB71FB79CB
S214001EE003F00F03FB71FB793033FB71FB79392B61
S214001EF002DDFB790733FB71FB7918460C37BD46CC
S214001F0080BC70474FF46D43CEF20003F0B49F6878
S214001F109A683B46BAB953F8045B4FF08054C4370E
S214001F2025601A4652F8046B251D66605C68131D12
S214001F306C602C1DBB42F4D14FF46D424FF08053C1
S214001F40CEF200029360103043F82010F0BC7047C9
S214001F50036870B500211D6901220446A847431C8A
S214001F6005460ED0216802220E6920460021B047A1
S214001F7022680646136920462946002298473046BE
S214001F8070BD0646FBE700BF0D4B0E4A30B402603C
S214001F9003F58074002501E0A3420FD01A4652F8DC
S214001FA0041B814208BF42F8045C134653F8042B16
S214001FB08242F1D1A34243F8045CEFD130BC7047B3
S214001FC05C130010980E010038B50F4A0F4B0446FC
S214001FD00260002503F5807001E083420FD01A46A8
S214001FE052F8041B8C4208BF42F8045C134653F8B0
S214001FF0042B9442F1D1834243F8045CEFD120468F
S21400200002F050FA204638BD980E01005C1300100E
S214002010074B186800B170474CF202014CF20302FD
S2140020200448C2F20901C2F2090200F067BC00BF10
S2140020305C14001098150010F0B50F4685B03049B6
S214002040064604F099FF0446002836D030462D494F
S21400205004F092FF60B330462B4904F08DFF002851
S2140020602FD02A48002406E05D680134181D35B1DB
S2140020700134402C29D04568031D002DF4D1317859
S2140020803A2936D002A8314600F08CFE02A800F0AD
S214002090DBFED0B102A800F0C3FEC8B102A800F073
S2140020A0C9FE03468BB11A49E01C41F8243002E011
S2140020B0FFF7AEFF012005B0F0BDFFF7A9FF2046F1
S2140020C0F9E7FFF7A5FF0220F5E74FF0FF30F2E74C
S2140020D002A800F09DFE05460028F6D0026802A879
S2140020E0966800F089FE3A4601462846B047034601
S2140020F0D8E73046074901AA04F0CCFE019BD1E799
S214002100580E01007C0E0100600E010058130010EE
S2140021105C130010C00E0100022808B50BDD084B4A
S214002120C21E53F82200002143F8221028B103688B
S2140021305A68904708BD002008BD4FF0FF3008BD24
S2140021405C1300100228F8B50D46174628DC1D491A
S2140021500A68002A2DD00FB32C46EE1914F8011B7E
S214002160ED43AB19184803F0010500F091FDB442A9
S21400217014D035B114F8011B134800F089FDB442A1
S2140021800CD0254615F8011B0F4800F081FD61783C
S2140021900D486C1C00F07CFDB442F2D13846F8BD08
S2140021A00A4B033853F8200040B103681B68984771
S2140021B0F8BDFFF72DFF002FCED1EFE74FF0FF3031
S2140021C0F8BD00BF5C140010981500105C130010DA
S2140021D0022810B50C460ADD0A4B033853F82000D7
S2140021E060B103689B6898470146084610BD0648DC
S2140021F000F048FD01212070084610BD4FF0FF3169
S214002200F3E700BF5C13001098150010022808B50D
S21400221008DD074B033853F8200028B10168CA6868
S214002220904708BD012008BD4FF0FF3008BD00BF35
S2140022305C130010022808B508DD074B033853F876
S214002240200028B103681B69984708BD002008BD18
S2140022504FF0FF3008BD00BF5C130010022808B521
S21400226004D84FF400504860002008BD02F090FDEE
S214002270092303604FF0FF3008BD00BF08B540F2E9
S214002280DC03C1F20003186840F6C461C068C0F2FF
S214002290010103F03BF8012000F004FD08B5012021
S2140022A000F000FD084A13681818EFF3088188420A
S2140022B002D2106018467047044B0C221A604FF08A
S2140022C0FF331846704700BFCC000010C41500103E
S2140022D00749084A084B9A42BEBF51F8040B42F819
S2140022E0040BFFF7F8BF0548804705480047000085
S2140022F00C1B0100C8000010A00A0010612300009B
S21400230039010000FEE7FEE7FEE7FEE7FEE7FEE730
S214002310FEE7FEE7FEE7FEE7FEE7FEE7FEE7FEE790
S214002320FEE7FEE7FEE7FEE7FEE7FEE7FEE7FEE780
S214002330FEE7FEE7FEE7FEE7FEE7FEE7FEE7FEE770
S214002340FEE7FEE7FEE7FEE7FEE7FEE7FEE7FEE760
S214002350FEE7FEE7FEE7FEE7FEE7FEE7FEE700BF76
S2140023604FF44042C4F20F02202330B4C2F8A0312A
S214002370D2F8A001800651D44FF44043C4F20F03B4
S21400238000250221C3F804110124C3F8A851AA208D
S214002390C3F8AC5155220B25C3F80C411946C3F8B7
S2140023A08450C3F88C00C3F88C20C3F88040C3F870
S2140023B08C00C3F88C20D1F888004FF440434201CB
S2140023C0C4F20F03F7D50322C3F88020AA205522B3
S2140023D0C3F88C001946C3F88C20D1F888004FF457
S2140023E0404310F0407FC4F20F03F6D048F2DE728E
S2140023F0C0F2284205210020C3F80811C3F8C42003
S214002400C3F8C8011A6822F4704121F03A0040F47B
S214002410405242F03A01196030BC7047D2F8A01121
S2140024204906A9D4D2F8A0114906F7D5A4E700BFFB
S21400243010B50021044604F01F0400F047F8012000
S21400244000FA04F010BD00BF006800F061B800BFDD
S21400245031B9836841681A6822EA01021A60704737
S214002460012900D0704783684268196841EA020073
S21400247018607047F8B54B1C0D46044616461DD02E
S21400248021600846FFF7D4FF25F01F0303F11C0167
S21400249003F1180703F1140260602161E7606261CE
S2140024A0A36020463146FFF7D3FF2EB92846032106
S2140024B0BDE8F84000F02CB8012E00D0F8BD284644
S2140024C00221BDE8F84000F023B800BF431C10B45A
S2140024D01BD000F16040A0F51C2404F00F03580048
S2140024E0032202FA00F201FA00F14FF440432009F9
S2140024F0C4F2020353F8204024EA020243F82020E4
S21400250053F82020114343F8201010BC704700BF3A
S214002510421C70B430D000F16040A0F51C20C1F31E
S214002520800400F01F0504FA05F542094FF4404305
S214002530C4F202031A3253F8226026EA050643F86C
S214002540226053F82260354343F82250A4B900F0C5
S2140025500F046200032505FA02F501FA02F20009EB
S214002560103053F8201021EA050443F8204053F8B1
S2140025702040224343F8202070BC704708B54FF433
S2140025800043C4F209039968C1F34201012903D04C
S214002590022900D008BD0021034880680028F9D031
S2140025A0024A1368984708BD6014001070140010A3
S2140025B008B54FF44043C4F209039968C1F34201D9
S2140025C0012903D0022900D008BD00210348C068B5
S2140025D00028F9D0024A1368984708BD6014001016
S2140025E07014001008B54FF44043C4F20003996815
S2140025F0C1F34201012903D0022900D008BD002101
S214002600034800680028F9D0024A1368984708BDB6
S214002610601400107014001008B50023C4F2010303
S2140026209968C1F34201012903D0022900D008BDF0
S2140026300021044840680028F9D0034A13689847E8
S21400264008BD00BF60140010701400102DE9F04F94
S21400265000230468C4F2010389B09C42079000F08E
S214002660E38040F393804FF40043C4F209039C4296
S2140026704FF4404000F0C980C4F20900844240F0A4
S2140026808B804FF44043C4F20F03D3F8AC2122F4FE
S2140026904020C3F8AC01D3F8AC2142F48020C3F844
S2140026A0AC01724B0801D3F800A0BAFBF0F300FBB4
S2140026B013A29BB20693002A00F0A580084659088C
S2140026C001910CF0DDFF019A064606989042C0F094
S2140026D09A80069C01250021B04602940495039139
S2140026E00020012505906A1CD5B2102D5DD00198FA
S2140026F00CF0C2FF4FF083410DF016F8012481461E
S21400270005E0019A0292601CC4B2AC42EBD050467F
S2140027100CF0B2FF074620460CF0AEFF8346284674
S2140027200CF0AAFF014658460DF0B2F84FF07E5165
S2140027300CF0F2FE014648460CF0F6FF014638461D
S2140027400DF0A6F8014630460CF0E4FE31460DF0DA
S2140027509FF80CF03FFB02F009FB0CF087FE4146A9
S21400276007460DF07FF90028CDD041F26F2138469C
S214002770C3F683210DF076F9B84604950394002835
S214002780BFD0019B012102930591BCE74FF4404066
S214002790C4F20000844258D0354D36492E68F068A1
S2140027A002F0B4FD012000F07DFA019B069C03F1C7
S2140027B0010B1FFA8BFB5C45CDF804B002D30599DC
S2140027C000298DD0029C0398049A079940EA0213C8
S2140027D006940C68DBB2227B069942F080022273D4
S2140027E0079C080A2268079C10712068C9B201700D
S2140027F0226882F828302368197B01F07F0018735E
S21400280009B0BDE8F08F1023E5E7C4F20F00D0F85A
S214002810AC3123F44032C0F8AC21D0F8AC3143F4EC
S2140028208032C0F8AC213CE74FF44040C4F20F00C1
S214002830D0F8A83123F44072C0F8A821D0F8A83107
S21400284043F48072C0F8A8212BE74FF44043C4F24B
S2140028500F03D3F8A82122F0C000C3F8A801D3F8CC
S214002860A82142F04000C3F8A8011AE7D0000010E3
S214002870DC0000103C0F010038B5013B012B0D4673
S21400288028D84C1F032C27D8042A0ED8DFE802F0DD
S21400289016191C1F03003022082144EA83030B4349
S2140028A000681A43D1B2017338BD1049104D28682C
S2140028B0C06802F02BFD012000F0F4F9002211465A
S2140028C0EBE700220821E8E710220821E5E72022AE
S2140028D00821E2E70749E9E7054C074923682A4645
S2140028E0D86802F013FD012000F0DCF9A40F010007
S2140028F0DC000010480F0100640F01002DE9F843CA
S2140029000F460546A1493846164600F019FAA04972
S2140029100446304600F014FA0146204600F0F8F966
S214002920431C044600F029810023C4F201039842A8
S21400293028607CD03CD94FF40042C4F20902904291
S21400294000F0DD804FF44041C4F20901884235D1E1
S2140029504FF44042C4F20F02D2F8C4104FF0010800
S21400296041F00070C2F8C40084F808802B68002488
S2140029705C6028464FF41651FFF768FE2246434631
S21400298028460821FFF778FF3846804900F09AF974
S21400299030467F4900F096F938462146FFF7B8FDE5
S2140029A030462146FFF7B4FD03226A60BDE8F8838F
S2140029B04FF44040C4F20000844268D04FF0010952
S2140029C084F808902B684FF000084FF41651C3F8AF
S2140029D004802846FFF73AFE42464B460821284622
S2140029E0FFF74AFF3846694900F06CF930466849F7
S2140029F000F068F938464146FFF78AFD3046414602
S214002A00FFF786FD4046C4F2010084423BD000F248
S214002A10A6804FF44042C4F20002944263D04FF4C2
S214002A204040C4F2000084425FD0BDE8F8834FF413
S214002A304040C4F20F00D0F8C4304FF0010843F015
S214002A401002C0F8C42084F80880296800244C606E
S214002A5028464FF41651FFF7F9FD2246434628460E
S214002A600821FFF709FF3846484900F02BF93046A1
S214002A70474900F027F938462146FFF749FD30461A
S214002A802146FFF745FD01206860BDE8F8834FF456
S214002A904042C4F20F02D2F8C4104FF0010841F0D1
S214002AA00803C2F8C43084F808802868002444600C
S214002AB04FF416512846FFF7C9FD224643462846DE
S214002AC00821FFF7D9FE3846304900F0FBF83046BB
S214002AD02F4900F0F7F838462146FFF719FD304633
S214002AE02146FFF715FD00246C602A4B2A48012476
S214002AF0294608221C60BDE8F84303F08DBC4FF45D
S214002B004041C4F20F01D1F8C4004FF0010840F074
S214002B108073C1F8C43084F808802A6800245460A2
S214002B2028464FF41651FFF791FD224643462846A5
S214002B300821FFF7A1FE3846144900F0C3F83046D6
S214002B40134900F0BFF838462146FFF7E1FC30464F
S214002B502146FFF7DDFC02216960BDE8F8834FF4EB
S214002B600041C4F209018C42F5D04FF44043C4F250
S214002B7009039C427FF453AF16E7084D08492E68B8
S214002B80F06802F0C3FB012000F08CF8E40F0100AF
S214002B90D00E01005C14001098150010DC00001028
S214002BA0C40F010010B441F2604341F27044406823
S214002BB0C1F20004C1F20003216043F8202010BCDB
S214002BC0704700BF70B503680024C4F20104A34236
S214002BD049D028DD4FF40046C4F20906B3423FD080
S214002BE04FF44044C4F20904A34222D1214D0824E4
S214002BF01ABB012202FA01F6D1F1010138BF002109
S214002C0002FA01F15D6825EA06055D600068436822
S214002C10194207D102FA04F24FF46141CEF20001E4
S214002C20C1F8802070BD4FF44045C4F20005AB42A9
S214002C301CD000252C46002ADBD0012606FA01F01F
S214002C405A6864B210435860204606FA04F42946CF
S214002C50FFF758F94FF46143CEF200031C6070BDD5
S214002C60054D0724C4E7054D0624C1E7044D052499
S214002C70BEE700BFB12500007D2500001926000034
S214002C80E52500000268137DD907FCD5107870474B
S214002C900268137D03F02000C3B2002BF9D0C9B23E
S214002CA01170704710B5044600F00AF820B904B950
S214002CB0FEE700F019FCFBE700F060F8F7E700BF5E
S214002CC000F068B8431C10B5044613D00B68581CB7
S214002CD004D110E051F80C3F5A1C0CD09C42F9D19C
S214002CE020468968FFF7F2FB20460221BDE8104027
S214002CF0FFF70EBC10BD044804490268D06802F015
S214002D0005FB0120FFF7CEFFDC000010501001008D
S214002D10884208B503D0421C02D0013102D108BD5A
S214002D20084608BD044B05491868C06802F0EEFA6C
S214002D300120FFF7B7FF00BFDC00001064100100A1
S214002D4008B5431C0BD00B685A1C04D108E051F898
S214002D500C3F5A1C04D09842F9D1486808BD08BDFB
S214002D60044805490268D06802F0D0FA0120FFF74F
S214002D7099FF00BFDC0000107810010030B585B068
S214002D806D46182420462946ABBE0446204605B0AC
S214002D9030BD00BF4EF6F053CEF20003186800F0C8
S214002DA00100704738B50022026042600B78044686
S214002DB02F2B01D0204638BD48780028FAD0481C72
S214002DC020604B782F2B12D0A3B18D1C114600E04B
S214002DD042B125602A782B46013101352F2AF7D1DA
S214002DE00133236000F01AFC6060204638BD0346BD
S214002DF01146F5E71946F5E700687047406808B5DC
S214002E0020B100F02BFC431E5842584108BD00BFBD
S214002E1010B50446FFF7F2FF00B1606810BD00BFB2
S214002E20406808B528B100F019FCD0F1010038BFA1
S214002E30002008BD10B50446FFF7F2FF10B1606829
S214002E4000B1043810BD00BF4068003018BF012034
S214002E50704700BF012902D0022903D070472830EE
S214002E6000F042BC443000F03FBC00BF044A10B53E
S214002E70044640F81C2B00F0A7FA204610BD00BF01
S214002E80A810010010B50446FFF7F0FF204601F039
S214002E9009FB204610BD00BF38B50F4B04460D4653
S214002EA040F8283B002100F017FC002104F1440004
S214002EB000F012FC42F6556229462346C0F2000294
S214002EC004F11C0000F040FA201D29460022FFF7FE
S214002ED0D1FA204638BD00BFA81001000430FFF725
S214002EE0B3BA00BF10B50A46044659B100F128002F
S214002EF000F0F6FB012104F11C000A46BDE8104074
S214002F0000F06CBA00F11C000121BDE8104000F092
S214002F1065BA00BF10B50A46044659B100F1440030
S214002F2000F0DEFB04F11C0002210122BDE8104087
S214002F3000F054BA00F11C000221BDE8104000F079
S214002F404DBA00BF82698368106818420CBF002023
S214002F5001207047183000F065B800BF183000F048
S214002F605FB800BF38B504461D4600F1180000F0F3
S214002F7017F82046294600F003F941F2F803C0F29C
S214002F80010303F108023C3384E80C00204638BDF8
S214002F90C1EBC10100EB8100083000F0A5BB00BF0B
S214002FA070B504460D4600F108000021164600F0F4
S214002FB093FB002104F1240000F08EFB20462946F6
S214002FC03246FFF79BFC4FF4165342F691712046AB
S214002FD02364C0F200012246FFF7E4FD204670BDE0
S214002FE038B505460C46FFF731FB2C6438BD00BFEC
S214002FF038B5144605460A4669B1C4EBC40005EB6D
S2140030008000083000F06CFB284621460122BDE80F
S2140030103840FFF7D7BD2146BDE83840FFF7D2BDA0
S214003020FFF730BE10B50C46FFF732FE204610BD47
S214003030002070472DE9F0418E18B1420F46054634
S21400304030D003688A1B0C46D2435B6A14F8011B17
S21400305002F00108984701301ED0A6421FD0B8F1F2
S214003060000F09D0296828464A6A14F8011B9047C1
S214003070013011D0A64212D0286814F8011B436A0A
S214003080284698470130284606D02A6814F8011BBF
S214003090536A98470130EDD1E01BBDE8F081F01B84
S2140030A0BDE8F0810020BDE8F08100BF2DE9F041C9
S2140030B08E18B1420F46054631D003688A1BD143AD
S2140030C09C6A01F00108A047431C3C4624D03C46BD
S2140030D004F8010BA6421CD0B8F1000F06D02B68EE
S2140030E028469A6A9047431C0FD115E0296828465F
S2140030F08B6A98470246511C28460DD004F8012BCF
S21400310029688B6A9847421C06D004F8010BA64231
S214003110ECD1F01BBDE8F081E01BBDE8F08100209B
S214003120BDE8F081002070470020704700207047FF
S2140031300020704741F26013C0F2010303F1080259
S2140031403C3310B5044680E80C00406901F088FE68
S214003150204600F085FA204610BD00BFA0F104000E
S214003160FFF7E8BF10B50446FFF7E4FF204601F07E
S21400317099F9204610BD00BFA0F10400FFF7F2BF8A
S21400318010B584B0044600F091FA41F26013C0F224
S214003190010303F1080040F6C0613C3384E80900EF
S2140031A02246C0F2010101A803F04EFE41F2B4111E
S2140031B0C0F2010101A802F0A1F80021606103F04D
S2140031C025FD204604B010BD38B5044640690D46BE
S2140031D001F014FF61692846BDE8384002F0AAB83D
S2140031E010B50446406901F009FF6069BDE810406B
S2140031F001F016BF2DE9F04F48F28009C4F202092B
S214003200D9F8047083B0D9F80860D9F82450D9F8F2
S214003210284007B3DFF82CB1494A4FF0010A05E011
S2140032200AFA08F17F1AC9F80C1014D0B7FA87F812
S214003230C8F11F005FFA80F85BF828000028EFD07E
S21400324013680121019298470AFA08F17F1A019A39
S214003250C9F80C10EAD11EB348F28008DFF8E4A0E3
S214003260DFF8DCB04FF00109C4F2020805E009FA05
S21400327007F2B61AC8F80C2012D0B6FA86F7C7F1CD
S2140032801F00C7B25AF827000028F0D00221DBF84A
S2140032900030984709FA07F2B61AC8F80C20ECD1A5
S2140032A02DB348F28007DFF89C90DFF894A04FF02B
S2140032B00108C4F2020704E008FA06F2AD1AFA6240
S2140032C015D0B5FA85F6C6F11F01CEB20F2EF3D88B
S2140032D006F1200059F820000028EDD00121DAF888
S2140032E00030984708FA06F2AD1AFA62E9D124B31C
S2140032F048F28006DFF84C80DFF844900127C4F2DD
S214003300020604E007FA05F2A41AF26215D0B4FA2F
S21400331084F5C5F11F01CDB20F2DF3D805F12000BD
S21400332058F820000028EDD00221D9F80030984740
S21400333007FA05F2A41AF262E9D103B0BDE8F08FED
S2140033407414001078140010B1F1FF3F70B525D04A
S2140033504FF4404621F01F0501F01F04C2F2090693
S2140033601449B5420A600560446006D04CF240023B
S214003370C2F209022034954212D10F4A84600F49E6
S214003380152042F82430FEF7BDFD4FF46143CEF21F
S21400339000034FF400101860002070BD084670BD92
S2140033A0074C08492568E86801F0B0FF0120FFF7E0
S2140033B079FC00BF7414001078140010F53100007A
S2140033C0DC000010C811010041F278438268C1F2A7
S2140033D00003002143F82210704700BF30B4036892
S2140033E04FF44044C2F20904A3422AD04CF24005EE
S2140033F0C2F20905AB4216D0012936D0A34245D009
S214003400AB4201D030BC70474068012101FA00F39E
S214003410002A4AD148F28002C4F20202506B20EA27
S21400342003015163EEE74368012404FA03F348F20C
S2140034308004C4F202040129E3621AD0002AE9D00B
S21400344033E04368012404FA03F348F28004C4F22C
S21400345002040129E36030D0F2B148F28000C4F2E1
S2140034600200426913434361CCE7A34225D0AB4236
S214003470C8D14368012148F2800001FA03F1C4F282
S214003480020062B3036B19430163BBE74068012186
S21400349001FA00F3002AE0D148F28000C4F20200EC
S2140034A0426922EA03014161ACE748F28002C4F2B5
S2140034B00202506B03435363A4E74368012148F2BA
S2140034C0800001FA03F1C4F202001AB1036919433D
S2140034D0016197E7026922EA0102026192E7026B44
S2140034E022EA010202638DE700B54CF2320199B080
S2140034F06846C2F209010122FEF7BCFF4CF2340115
S21400350006A8C2F209010122FEF7B4FF4CF235010B
S2140035100CA8C2F209010122FEF7ACFF4CF23701FB
S21400352012A8C2F209010122FEF7A4FF019A039B2A
S2140035300A991A600798109B08600D9A96201A60E0
S2140035401399159A116000F01DF80198049B099ACA
S214003550186007990F9B11600D98169A18601399BA
S2140035609620116000F00EF8E0E700BF38B505467B
S21400357000F0FCF8044600F0F9F8001BA842FAD365
S21400358038BD00BF4FF47A7303FB00F0FFF7EEBFC1
S214003590094A8368026053B108490A68824201D129
S2140035A006E01A4653689842FBD14168516070475E
S2140035B043680B60704700BF1812010038150010F2
S2140035C00C4A836810B50446026053B10A48026884
S2140035D0944201D10AE00A4651688C42FBD16368E6
S2140035E05360204600F05EFF204610BD6168016013
S2140035F0F7E700BF1812010038150010054B816070
S2140036000360027321B104490A680860426070478B
S2140036104160704718120100381500100E4B70B547
S2140036201C6806460D4614B912E0646884B1A368A7
S21400363031462A461846002BF7D003F0A9FD00288D
S214003640F3D1A06803F076FDA842EED1204670BD07
S2140036500024204670BD00BF38150010007B704760
S21400366041F26023C0F2010310B503F134020446B0
S214003670083340F8042F2360FFF78AFF2046FEF742
S21400368083FC204610BD00BFA0F10400FFF7E8BF92
S21400369010B50446FFF7E4FF204600F003FF20467F
S2140036A010BD00BFA0F10400FFF7F2BF094B10B534
S2140036B00022044640F8043BFFF7A0FF41F26023D7
S2140036C0C0F2010303F10802343384E80C002046FC
S2140036D010BD00BF980E01000022016042607047D6
S2140036E0002301604360704708B5036801460BB1CC
S2140036F0984708BD406810B18A690831904708BDF0
S214003700174A38B513684BBB4FF44041C4F20F015B
S214003710D1F8C40001254FF480441560C4F20904B2
S21400372040F400000F4AC1F8C400236711684DF644
S21400373083638808C4F21B33A3FB0012910C4B1E54
S214003740022060600849E36004206560FEF7DAFB4B
S2140037504FF46141CEF2000110220A6038BD00BF6E
S2140037603C150010D0000010C137000008B5054B0E
S214003770186808B9FFF7C4FF4FF48041C4F2090186
S214003780886808BD3C1500104FF48043C4F2090356
S21400379098615A6942F00100586170474FF48043BF
S2140037A0C4F209035A6922F001005861704700BF4D
S2140037B04FF48043C4F2090301221A60704700BF29
S2140037C070B5FFF7F5FF0E4C0E4E206870B1056819
S2140037D0FFF7CCFF281A00280CDC216832688868BE
S2140037E02060002AF2D048689047EEE7BDE87040B7
S2140037F0FFF7D4BF23681868BDE87040FFF7C4BF62
S214003800401500104415001070B5002410260368FB
S21400381084B01546029612689E6900946B468DF831
S21400382004400394B0479DF8043003F00603062BCB
S21400383009BF01202046009B2B6004B070BD00BF6E
S214003840009890420CBF06200120704710B5044631
S214003850024B036001F0EEF8204610BDD8120100BE
S21400386010B50446044B036001F0E4F82046082136
S21400387000F0B2FA204610BDD812010038B5154641
S2140038801C4601F0DBF820B1082206232560E26022
S214003890237138BD2DE9F04117461C4606460D46F5
S2140038A001F0CCF808B9032C01D9BDE8F0812B68EB
S2140038B03A4631462846BDE8F0415B69184700BFE6
S2140038C0F0B583B0089D0A9917468D4206460B9CB4
S2140038D00BD01946304601F0B1F818B10123256027
S2140038E02771A371002003B0F0BD0999019301F080
S2140038F0A5F818B10020677103B0F0BD019BE8E79A
S214003900F0B41D4CA0F10806616850F8087CC9B1F7
S214003910F519A9421BD04A682AB3954204D326E07B
S2140039209D42114604D21A4653680C1D002BF7D14F
S21400393011685518AE4213D040F8043C23685E6008
S214003940F0BC704740F8041C6660F0BC70470B681B
S2140039504A681F4440F8087C40F8042C6660EFE78D
S2140039600F441760ECE7134604340A46E0E71346B4
S21400397004340A46DCE700BF4815001030B4184C83
S21400398000F108016368082938BF082113B307311E
S2140039901A6821F00701914204D81DE0026891429E
S2140039A005D9034658680028F8D130BC7047043360
S2140039B0521A072A0AD9446845186C601C68425097
S2140039C021601D6004F1080030BC70474268044660
S2140039D01A60F7E71846E8E71846231DE8E700BF31
S2140039E04815001038B500F18005284602F01CFA8C
S2140039F0044638B180220021204602F0E7FD04F19B
S214003A00800038BD2846FFF7B9FF04460028F1D1EC
S214003A1000F020FD064A80389368984205D9D2689F
S214003A201344984201D2FFF76BBF02F005BA00BFFD
S214003A304815001038B54FF41E65074C2846E5605B
S214003A4002F0F2F9A06020B10023606005604360D8
S214003A5038BDE060606038BD481500100B46014672
S214003A60184601F08FB900BF012810B51AD8BFF369
S214003A705B8FA1F1280353E8002F013A43E80020AA
S214003A800028F8D1BFF35B8F5AB951F81C3C01F1FE
S214003A9058040BB1204698472046BDE81040FFF773
S214003AA0B9BF10BD51F8140C00F0C0FC2DE9F04170
S214003AB004461746884601F0A7F801264368A4F195
S214003AC058053344436044F8747C44F8806C44F8EA
S214003AD0788C00F0DFFC44F8700C00F0D3FC472133
S214003AE043222B234FF04E0E5527002604F8581C71
S214003AF00D4944F86C0C04F857EC44F8501C04F8D4
S214003B00552C04F8542C04F8533C04F8523C04F8A2
S214003B10567C04F8516C28460CF0BCFE284600F093
S214003B203DF800F097FC00BF693A000010B501F0C0
S214003B306BF8426804680132426064B194F8202051
S214003B40472A0AD000220260203420460CF0C6FE27
S214003B50204600F023F800F07DFC94F821204E2A41
S214003B60F0D194F82220552AECD194F82320432A49
S214003B70E8D194F82420432AE4D194F825202B2A6F
S214003B80E0D194F826202B2ADCD194F82720012AAD
S214003B90D8D8626952426261D6E700BF38B504469B
S214003BA001F032F822780368472AA4F1200105D0F4
S214003BB0002B31D11C460160204638BD62784E2A63
S214003BC0F6D1A278552AF3D1E278432AF0D12279A9
S214003BD0432AEDD162792B2AEAD1A2792B2AE7D1A2
S214003BE0E279012AE4D854F80C2C002A11DB0132C1
S214003BF045688B4205F1FF3544F80C2C45601CBF28
S214003C0044F8103C01602046646A0CF0A3FA204693
S214003C1038BDC2F10102EBE700F01CFC08B500F06D
S214003C20EFFF0246006800283DD090F82030472B72
S214003C3006D0002320301360BDE808400CF08CBA94
S214003C4090F821304E2BF4D190F82230552BF0D13D
S214003C5090F82330432BECD190F82430432BE8D156
S214003C6090F825302B2BE4D190F826302B2BE0D182
S214003C7090F82730012BDCD84369002B05DB013B8D
S214003C8008D05A1C0DD0436108BD0133FBD1016931
S214003C901160F8E7036920301360BDE808400CF0B7
S214003CA05BBA00F0D7FB08BD10B50446024B0360B4
S214003CB0FFF7CCFD204610BD3813010010B50446B2
S214003CC0044B0360FFF7C2FD20460C2100F084F889
S214003CD0204610BD3813010070B582B0069C0D4614
S214003CE09442064609D0B068294606680694346AA7
S214003CF0A44602B0BDE870406047194601920093A2
S214003D0000F09CFE009B019A0028ECD0062002B032
S214003D1070BD00BF2DE9F04F894681B019461D469B
S214003D20164607460A9CDDF82CB0DDF830A0DDF814
S214003D30348000F083FE88B1B9F1000FC8F8004067
S214003D4088F804601EDB4C44A2450CBF0624012400
S214003D5088F80640002001B0BDE8F08F544518D022
S214003D60B8682B460568CDF83480CDF830A0CDF87D
S214003D702CB00A94EC6932464946A44601B0BDE828
S214003D80F04F604719F1020FE4D1012388F806309E
S214003D90E0E75946384600F051FE0028E0D0002003
S214003DA088F8056001B0BDE8F08F00BF2DE9F0414E
S214003DB007460C4615461E46FFF760FD08B1BDE8EF
S214003DC0F081B868334606682146B4692A46A44698
S214003DD0BDE8F041604700BF00F064BB5028F8B56E
S214003DE054D000F00F040C2C4ED8DFE804F007394E
S214003DF04907174D4D4D4D1F1B071700154655F823
S214003E00044B44B100F07006102E08BF114602069F
S214003E100C4448BF24681C602846F8BD154655F873
S214003E20084BEEE7154635F9024BEAE7002415463F
S214003E30274615F801EB0EF07F06BE401EF0800FF9
S214003E4044EA060407F10707F3D11F2FD9D81EF05E
S214003E50400FD6D04FF0FF3606FA07F73C43D1E7BF
S214003E6000241546274615F801EB0EF07F06BE40E7
S214003E701EF0800F44EA060407F10707F3D1C0E7F7
S214003E80154635F8024BBCE700F074FF033222F00B
S214003E90030555F8044B1C602846F8BDFF280DD0D6
S214003EA000F07000202815D00AD940280FD05028DE
S214003EB004D0302808D108460CF004BF0020704714
S214003EC00028FBD01028F9D008B500F053FF0846AC
S214003ED00CF0E4BE08460CF0F1BE00BFF8B50C4688
S214003EE015460746002842D00CF0D8FE28602678F3
S214003EF00134FF2E32D039463046FFF7CFFF224638
S214003F0001462B1D3046FFF769FF04462378601CE8
S214003F10FF2B2B7528D00024102322462B7510F873
S214003F20011B01F07F039340090644EA030402F1F3
S214003F300702F4D40444EC600024224603780130DF
S214003F406B7510F8011B01F07F0393401C430B06B2
S214003F5002F10702F5D404442C61F8BD68602378AA
S214003F60601CFF2B2B75D6D10023EB60E4E7BDE782
S214003F7000232DE9F04F00F0030497B0012C89468A
S214003F8017460A931ED00ED3022C0AD1394648464D
S214003F900CF06EFE002800F0A580092017B0BDE8E2
S214003FA0F08F00F0E7FE0007F0D401230393002310
S214003FB016AA42F82C9D009219460C2238460CF0A0
S214003FC0F7F80FE010F0080400F0908016AA42F808
S214003FD02C1D009244F0020419460C223846039425
S214003FE00CF0E6F838460CF05FFE05900028CDD0C1
S214003FF010AB1A46059938460693FFF76FFF394609
S21400400004469DF85400FFF749FF00230DF13C0BD2
S214004010129019460F22CDF800B038460CF0A2F8E0
S2140040200F9B149A23F00103A24203F1FF3675D9C1
S2140040300DF1340A0DF138089DF855500021284638
S214004040FFF72CFF2246534601462846FFF7C6FEDA
S2140040509DF85540054600212046FFF71FFF2A46DB
S214004060434601462046FFF7B9FE9DF855400546F3
S21400407000212046FFF712FF2A4601465B462046EF
S214004080FFF7ACFE04460020024614F8011B01F0C0
S2140040907F039340090640EA030002F10702F4D4C6
S2140040A0109B0D9A13449E4231D2039BDB0739D5F1
S2140040B00025049500230D221946CDF800803846C9
S2140040C00A9C0CF04FF8059A0E9BC9F82C20049A0F
S2140040D0C9F82440C9F82850C9F83020C9F820305B
S2140040E006205BE7082017B0BDE8F08F10AB009302
S2140040F006930D22234621463846D9F820500CF068
S21400410031F8109B9D4212D0022303934FE70E9A7C
S21400411013449E4259D3149BA3428DD800250124F4
S214004120049507E1039B1B074CD500F093F916ABEB
S21400413043F82C9D0093214623460C2238460CF06B
S21400414037F8D9F830300493002B3BD00324D9F845
S2140041502850D9F82C10002DC0F208810DF1340A31
S2140041600DF13808002316AA42F8289D1946009239
S21400417038461A460CF01CF8002301221946CDF8E2
S21400418000A038460D950CF013F800230F221946B0
S214004190CDF8008038460BF0E5FF00230E9A049D0C
S2140041A002F001021543CDF80080384619460F226A
S2140041B00E950BF0FDFF022C00F08280072017B052
S2140041C0BDE8F08F484600F04FFD0F9B1A4604935B
S2140041D0002B7AD100283FF4D9AE149B049A0138FC
S2140041E00344002A3FF4D2AE002B77D0039A12F095
S2140041F00802099200F0F88047254E2455204321F6
S21400420046224F264FF0520E4FF0000C89F8005011
S21400421089F8014089F8020089F8031089F804201B
S21400422089F8056089F806E089F807C00022079734
S21400423008920025294600E023461C4614F8010B88
S21400424000F07F028A40060645EA020501F10701F2
S214004250F2D41F2905D8420603D501228A405242CD
S21400426015430026314613F8010F00F07F028A40FE
S214004270070646EA020601F10701F4D41F2905D80D
S214004280400603D501238B405B421E43002D5CD0C5
S2140042905EDD9DF85400FF2800F0A48000F00703C0
S2140042A0042B3FF67EAE01A252F823F0174300001F
S2140042B0A33F00001D43000017430000F542000026
S2140042C0484600F033FC072068E6119B1A44049227
S2140042D0002882D1049B002B3FF458AE039B13F0BA
S2140042E001037FF453AE039A12F0080540F097805E
S2140042F0022437E7EB005B42139A12991A444346AE
S214004300FFF76CFD0E9999B1B9F1000F09D1002E97
S21400431077D0A3198DE7AB005B42EDE76B005B42FD
S214004320EAE70AAB0022484600F0A4FB0028EED0DD
S2140043300324079F039BDA0760D4039B190766D400
S214004340012C3FF43FAF059905E701230893DEE70C
S214004350B9F1000F01D0099B5BB36B1C139AC3EB3A
S214004360837352F82330002BD1D1E1E7069A384602
S214004370FFF7B4FD39469DF85400FFF78FFDAA00FD
S21400438082F00302D243139E1290B358164433B100
S2140043903246002352F8041F01330029FAD10422C2
S2140043A0C9F82830C9F82C00C9F83460C9F830209C
S2140043B0D4E6139F6B1CC3EB837357F823100A9A3B
S2140043C007EB83070F9221B9B2E757F8041F0029BD
S2140043D0AED039445B460022484600F04BFB00282E
S2140043E0F3D094E7002387E799F80720012A0CBF4B
S2140043F059F8202C09F158020A9217E70DF13808EF
S21400440058E6089B079F002B7FF468AFBEE5012C9B
S2140044103FF48BAE002DBFF6A1AE00F029F81D4686
S21400442002249FE6FFF7BAFB7FE600BF08B5804789
S21400443000F0A0FCFFF7B2FB00F09CFC0D46044623
S214004440FFF7ECFB013501D000F00EFB204600F034
S2140044501BFC00BF08B5034B1868BFF35B8FFFF764
S214004460E5FF00BFD400001008B58047FFF7F2FF55
S21400447008B5034B1868BFF35B8FFFF7F5FF00BF67
S214004480D8000010024B1868BFF35B8F704700BF60
S214004490D4000010024B1868BFF35B8F704700BF54
S2140044A0D800001001F0C8BC10B50446024B0360EB
S2140044B0FFF7CCF9204610BD9813010010B504464E
S2140044C0044B0360FFF7C2F920461821FFF784FC6F
S2140044D0204610BD981301002DE9F04F83B0DDF89B
S2140044E0309017464A4588469A4605462BD0EE68D1
S2140044F005EBC605EEB1EC68013E14F0020F4FEA7C
S214004500242213D014F0010404D018F1030F0DD0A8
S2140045103B689A58A8683A440368CDF80090D3F8E8
S21400452020B041465346D847032806DC083D002EF7
S214004530E1D1012003B0BDE8F08F002CFAD040F0A6
S2140045400100C0B2F6E7194600F078FA0028CED08F
S2140045500620EFE72DE9F04F93B01F9C05460B9021
S214004560A0688B46C10609920793DDF870A001D5B6
S214004570AB68A3601E9B9A4500F00B8107990B98C9
S21400458000F05CFA002840F08B80BBF1000FB4BF4F
S21400459006461E9B4FF00102A8BFA3EB0B060023A6
S2140045A0CDF818B0B34608930D931F46099B0A92A0
S2140045B013430C930B9AD2F80C9002EBC908CDF873
S2140045C01490059B002B00F03481D8F80C10A568D9
S2140045D0CA0748BFDAF800004FEA2123119548BF02
S2140045E0C3580F978DF840708DF841708DF8427063
S2140045F04CBF0C9A099A5344BBF1000F07D05B4599
S21400460094BF002001200A9EB04200F0BF808E07B3
S21400461005D40699023100F0CB8002F0FD02D8F8EE
S21400462008001E9E016802961D9E0FAD8DE848008C
S2140046300395CD69079B0699A84762799DF8413096
S2140046409DF842501343062D6371014600F0E88042
S214004650022D00F0E580089A002A40F08E8022683D
S214004660002A00F0B2800F99914200F0A480002941
S21400467000F0A780032B94F8069029D9DB0702D513
S214004680A3689E0724D4B9F1000F63D035BB89F028
S2140046900103DBB2032B6BD909F002014D462DE076
S2140046A09DF82430BBF1000FC4F800A02371C0F2BF
S2140046B0D1801E9BDA44534514BF4FF0010A4FF0D9
S2140046C0060A002184F806A0084613B0BDE8F08F5D
S2140046D0B9F1000F21D0002D00F0858085EA09038E
S2140046E0DBB2032B3ED9032DD6DD00230F9A0893A9
S2140046F09DF840302260237105F00201A571002963
S21400470051D1EB07E0D56379042B00F0A180059B1F
S214004710A8F10808013B059353E7032D06DDEB07D8
S21400472040F191800B9B9B689E0714D5069B002B3F
S214004730C0F2A980069BD3181E9A9A4200F0C08049
S2140047404DB9069B1E9ACB189A4200F0C0804FF0D7
S21400475001099CE765B185F00103DBB2032B4FF03E
S2140047600109C0D805EA0905EDB2032D00F28580DF
S21400477001232760A3710893C5E72268002A7FF407
S21400478072AF0F9900297FF475AFBDE701230D9333
S214004790BDE71D990B9800F051F900283FF4EEAEE6
S2140047A09DF8243063710021084613B0BDE8F08FF1
S2140047B0A907ACD031E722799DF840100A43227150
S2140047C0A2E700287FF456AF9EE70F9A9DF8405068
S2140047D0226025712AB153B30B9A9268D2077FF5EF
S2140047E073AF089090E7B9F1030F07DD19F0010FDA
S2140047F03FF44DAF0B9B9B689A0732D50F99069BEB
S214004800002B4EDB069B1E9ACB189A427FF43FAFD6
S21400481089F00603DBB2032B59D809F00605A4E796
S2140048200F9A9DF84030A571226023714CE70890DE
S2140048306DE70D9BDDF8149053B10A9B0D933BB1C9
S214004840CDF82890B6E6002D85D14FF00109D6E7C1
S214004850089939E71BF1020FA5D101230021A371A6
S21400486032E789F00103DBB2032B81D919F0020F7E
S21400487084F806903FF447AF95E7002202232260B3
S214004880A371012120E706998B1C3FF463AF0798BC
S2140048901E9E03680096D3F820901D9BC84781464D
S2140048A019E7069EB31C3FF4F2AE07981E9A0368FB
S2140048B000921D6A0A461D9B3146A84705460DE72D
S2140048C06DB185F00603DBB24FF0060909E7062254
S2140048D09DF840302160A27123710021F4E64FF06C
S2140048E00609D9E62DE9F04F89B0044603900191F8
S2140048F017469846FEF7C2FF814600285AD1D8F8D8
S2140049000830DD06009301D5A3680093039A009B48
S214004910D56803F00103002602EBC5040293002DC0
S21400492041D0E268009B12F0020B04968DF81460EA
S2140049300693079602F0010A01D1029B7BB3002F73
S2140049403CD01212BAF1000F01D03B689A583A4494
S214004950A06801990368D3F8189004ABC84781464D
S214004960E8B1079B082B2BD09DF81430032B06DDEF
S214004970BBF1000F03D123F002038DF81430D8F8F2
S2140049800C1019B3D8F80030049A934248D173B388
S21400499098F804309DF81420134388F80430013D3D
S2140049A0083C002DBDD198F8049019F1000918BFF5
S2140049B04FF00109484609B0BDE8F08F3A46C7E710
S2140049C0BAF1000FD0D0A3680793CDE704AB0FCBA6
S2140049D088E80F0098F80430032BEBDD980716D50F
S2140049E0039B9B68D907E5D5013D083CD9E70798A6
S2140049F0082805D0082903D000F020F80028C7D1E1
S214004A000223484688F8043009B0BDE8F08FDA077C
S214004A10D0D5039B9B689B07CCD5013D083CC0E7DF
S214004A20002202234846C8F8002088F8043009B05F
S214004A30BDE8F08F704700BF00207047814211D05C
S214004A4008B5406803782A2B0AD049680B782A2BC9
S214004A5008BF013102F090FAB0FA80F0400908BDB4
S214004A60002008BD012070471EB400F091F81EBC5F
S214004A700BF022FFF0B5027883B0472A0D461F469A
S214004A801ED00023274C0193236820469B68984736
S214004A9080B10226019B1B6801932B68214628469D
S214004AA01C6901AA0123A04730B13046019B3B6038
S214004AB003B0F0BD0126F0E70646304603B0F0BD71
S214004AC043784E2BDDD18378552BDAD1C378432B30
S214004AD019D0C378432BD4D10379432BD1D1437952
S214004AE02B2BCED183792B2BCBD1C379012BC8D8D6
S214004AF004D050F8204C58300190C5E750F8200CF0
S214004B0050F8784CF8E70379462BE2D143794F2BDF
S214004B10DFD18379522BDCD1C379002BD9D1019315
S214004B20014CB1E7F0130100E813010010B504468C
S214004B3000F06AF82378A4F12002472B04D083689B
S214004B4023BB8260012010BD63784E2BF7D1A3787B
S214004B50552BF4D1E378432BF1D12379432BEED1B7
S214004B6063792B2BEBD1A3792B2BE8D1E379012B9F
S214004B70E5D854F8043C0133012B44F8043CE1D159
S214004B80836844F8083C8260012010BDFFF762FC91
S214004B9008B500F039F8836883B393F82020472AD5
S214004BA004D00022826003F1200008BD93F8212083
S214004BB04E2AF6D193F82220552AF2D193F82320D4
S214004BC0432AEED193F82420432AEAD193F82520ED
S214004BD02B2AE6D193F826202B2AE2D193F8272019
S214004BE0012ADED8DA69013ADA61002ADBD100222E
S214004BF0996981609A6103F1200008BDFFF72AFCDD
S214004C0000487047581500100048704758150010A7
S214004C10704700BF00487047D413010010B5044623
S214004C200421FFF7D9F8204610BD00BF0378472BB4
S214004C3001D00020704743784E2BFAD18378552B4D
S214004C40F7D1C378432BF4D10379432BF1D14379C1
S214004C502B2BEED183792B2BEBD1C07901288CBF7F
S214004C6000200120704700BF10B530B10446FEF7A3
S214004C7095FF2046FFF7DAFF08B9FFF7EBFB54F87D
S214004C80140CFFF7D3FB00BF2DE9F04F85B00246AA
S214004C90FFF7CCFF68B152F8184C104652F8145C77
S214004CA0966A176BD2F83490FEF778FF2046FFF727
S214004CB0DBFB1046FEF772FFFFF7DAFBFEF76EFF30
S214004CC0FFF7C8FBFEF76AFFFFF79AFF036893F843
S214004CD02720012A37D003F178024FF000084C460F
S214004CE0C1460DF1100A203327F0030B01934AF852
S214004CF0082DB1451BDA276807B127445346002222
S214004D0039460198FFF7B6FE10BB3B6804AA1B693C
S214004D1042F8040D0093384601231149009FB84716
S214004D20002818BF804609F101095C44E1E7B8F1A4
S214004D30000F0AD00420FEF755FE0A4B0A4A03600D
S214004D400749FEF7B3FE1A68C7E72846FFF76EFB6B
S214004D50FEF7ECFEFEF762FFFEF760FFFFF784FE4D
S214004D60F81301007C140100114C000021F00041F2
S214004D70704700BF08B5062002F048F801200BF087
S214004D80B7FF00BF13460A460146022005F0E6BFFD
S214004D90014B1868704700BFDC00001070B559B1B1
S214004DA005460C4610B1836B002B3CD0636ED807CB
S214004DB005D5B4F90C302BB90026304670BDA38952
S214004DC099053CD52146284600F052F8E36A064687
S214004DD033B1E169284698470028B8BF4FF0FF3640
S214004DE0A3891A0622D4216B41B104F140039942EB
S214004DF002D0284600F01AFB00232363616C21B121
S214004E00284600F013FB0023636400F00BFA002230
S214004E10636EA281DB070ED5A06D00F087FF00F061
S214004E2007FA304670BD00F079F9BFE721692846D9
S214004E3000F0FCFAD7E7A06D00F07CFFECE7A06D71
S214004E4000F076FFB4F90C30002BBBD1666E16F07E
S214004E500106B1D1A06D00F06DFF304670BD00BFF9
S214004E60024B01461868FFF799BF00BFDC00001030
S214004E70B1F90C302DE9F0419AB20D461107804683
S214004E803AD46A6843F40063002AAB8170DDAC6AEA
S214004E90002C4AD000229BB2D8F80060C8F8002048
S214004EA013F4805268D02A6D5F0705D569682B6BAE
S214004EB0521A0BB1EB6BD21A0023E9694046A047A1
S214004EC0441C3DD00021B5F90C302A6923F4006358
S214004ED0AB81DB0469602A6048D4296BC8F800609F
S214004EE019B305F14003994202D0404600F09EFAFD
S214004EF000202863BDE8F0812E69B6B1910718BF7F
S214004F0000232C6808BF6B692E60A41BAB600AE008
S214004F10234632466F6AE9694046B8470028A4EB44
S214004F200004064404DD002CF2DC0020BDE8F0811D
S214004F30AB894FF0FF3043F04003AB81BDE8F08112
S214004F40D8F800401D2CF3D8164BE340DB4313F093
S214004F500103EDD1B5F90C20296922F40062AA817B
S214004F60D2046B602960B8D5002CB6D12865B4E7AA
S214004F70EA6B002A8BDCD8E70123E9694046A047A4
S214004F80431C024602D0AB89AC6A8DE7D8F80030E5
S214004F90002BF8D01D2B01D0162BC9D1C8F8006005
S214004FA0C3E700BF0100402038B50D46044608B1EF
S214004FB0836BBBB1B5F90C0088B16B6EDB0701D40F
S214004FC0810517D520462946FFF752FF6B6E04462B
S214004FD0DA0702D4AB899B0507D5204638BD0446C0
S214004FE0204638BD00F09AF8E4E7A86D00F0A2FE6F
S214004FF0204638BDA86D00F09BFEE3E720B1054BC8
S21400500001461868FFF7D0BF034B0449186800F044
S2140050103BBE00BFDC00001088140100A94F000052
S21400502038B51A4B04461D680DB1AB6BDBB1636E29
S214005030D80702D4A389990519D56368013B002BCC
S21400504063601CDB23685A1C22601D78636EDA07D7
S21400505002D4A3899B0501D5284638BDA06D00F073
S21400506069FE284638BD284600F058F8DFE7A06DF0
S21400507000F05EFE6368013B002B6360E2DA2846C0
S214005080214601F097FD0546E0E700BFDC00001072
S214005090014900F0F9BD00BF9D4D0000002310B58A
S2140050A004468181C2810360436083604366036176
S2140050B043618361194608225C3001F087FA07488D
S2140050C00749084A084B2062E4616162A262E36213
S2140050D004F15800BDE8104000F026BEED6E00005A
S2140050E0156F0000516F0000716F000070B56825E5
S2140050F04A1E05FB02F50E4605F1740100F0A4FEFB
S214005100044640B100210C30666005F1680221605B
S214005110A06001F05BFA204670BD00BF10B50446E3
S214005120144800F005FEA26BFAB90320124904F5F4
S2140051303B73C4F8E832C4F8E022C4F8E402E16342
S21400514060680421FFF7AAFFA06801220921FFF783
S214005150A5FFE06802221221FFF7A0FF0123054801
S214005160A363BDE8104000F0E5BD0248BDE810406E
S21400517000F0E0BDAC1500109150000070B506467A
S214005180264800F0D5FD264B1D68AB6B002B33D0B0
S21400519005F538756B68AC68013B05D528E0013B22
S2140051A05A1C04F1680423D0B4F90C20002AF6D166
S2140051B000254FF6FF720123E281A38104F1580017
S2140051C0656600F0B1FD154800F0B4FD2560A560E9
S2140051D0656025616561A5612946082204F15C00C9
S2140051E001F0F4F9256365636564A564204670BD27
S2140051F02C682CB12546CDE72846FFF78FFFC7E77A
S21400520004213046FFF772FF044628600028F1D1DB
S214005210024800F08FFD0C233360E7E7C01500104E
S21400522088140100014800F083BD00BFC0150010BF
S214005230014800F07FBD00BFC01500101346F0B552
S21400524083B00F4601AA1946064606F0DDFD002883
S2140052502FD005463046FFF791FF0446002828D099
S21400526039464FF4DB73019A304601F009FA071EFF
S21400527030DB636EDB0715D51C491D481D4A1E4BE7
S2140052806162E905E781A581E4612062A262E362CA
S21400529013D4636EDA0702D4A3899B0514D520467F
S2140052A003B0F0BDA3899805E6D4A06D00F040FDDC
S2140052B0E2E70024204603B0F0BD30460223002279
S2140052C0214600F099F9E4E7A06D00F033FD204692
S2140052D003B0F0BD0025FFF7A5FFA581A06D00F087
S2140052E025FD2C46FFF7A4FFD9E700BF156F000089
S2140052F0ED6E0000516F0000716F0000024B0A4611
S21400530001461868FFF79ABFDC0000100EB430B5EF
S21400531082B005AC54F8042B054D01462346286898
S214005320019404F011F902B0BDE8304003B07047B4
S214005330DC000010144B70B51D6806460C460DB117
S214005340AB6BC3B1636ED80702D4A389990516D593
S21400535028462246314601F0A9F9636E0546DA076B
S21400536002D4A3899B0501D5284670BDA06D00F028
S214005370E1FC284670BD2846FFF7D0FEE2E7A06DA8
S21400538000F0D6FCE4E700BFDC000010F8B50C46E1
S214005390234F064601F068F9BB68C4F57E615D6878
S2140053A00F3125F00305294421F47F6121F00F0118
S2140053B0A1F58054B4F5805F07DB0021304601F08C
S2140053C013FCBB682B44984204D0304601F052F9D7
S2140053D00020F8BD6142304601F006FC01300DD0D9
S2140053E0104BBA6819682D1B45F001053046091B9D
S2140053F05560196001F03EF90120F8BD00213046E5
S21400540001F0F2FBBA68831A0F2BDEDD064C054965
S214005410246843F00103001B53600860D5E700BF13
S214005420080500106415001010090010002944D06B
S2140054302DE9F0410D46804601F016F955F8047C3A
S2140054406949A5F1080427F00103E2188E68506840
S214005450B24220F003005ED0FE0750600BD455F831
S214005460087C01F1080EE41BA5683B4475456DD029
S214005470E768EF60BD6015186D68ED073ED543F030
S21400548001026260E350B3F5007F17D20122DB0809
S21400549098104D68134451F83370824001EBC300F6
S2140054A02A430838E060A7604A6041F83340FC6051
S2140054B04046BDE8F04101F0DDB870475A0A042ABC
S2140054C052D89A0902F13907FF0002F13805C819C7
S2140054D0CA59083890424FD0516821F003018B42D8
S2140054E032D292689042F7D1C368A060E3609C60B5
S2140054F0C4604046BDE8F04101F0BCB895683B4F3B
S2140055000344BD4240D0D06843F00102E8608560A5
S2140055106260E350B7E7FF07034407D455F8085C1A
S214005520641BE268A0682B44C2609060304A43F077
S21400553001001268606093428C60B9D32D4B4046E0
S2140055401968FFF723FFB3E71046CDE7111849683F
S214005550C90744D491680344D26843F00100CA6086
S21400556091606060E350A3E7142A16D802F15C0746
S214005570FF0002F15B05AAE70123AA104D689340DD
S2140055802B434B600346B0E743F001024C610C61CD
S214005590E560A5606260E3508AE7542A06D81A0BD5
S2140055A002F16F07FF0002F16E0590E7B2F5AA7FE1
S2140055B006D8DA0B02F17807FF0002F1770586E7D6
S2140055C040F25450824206D89A0C02F17D07FF0042
S2140055D002F17C057BE74FF47E777E2577E743F084
S2140055E001016160136063E70805001010050010F4
S2140055F0140900109415001000F000B82DE9F04FC3
S2140056000C4691B091461F46064610B1836B002BA0
S21400561067D0636E13F0010FA38902D19D0540F198
S214005620B18003F48473B3F5847F00F0B580D4F8BA
S2140056302880B8F1000F00F0B980012F38D0022F73
S2140056400ED06FB11622636E3260D90702D4A389DA
S2140056509A0529D54FF0FF35284611B0BDE8F08FE2
S2140056604FF0000A55462369002B00F02D8140F6C6
S2140056701A01B4F90C309AB20A4208D1520539D44C
S214005680A74A904500F0258143F40063A381214694
S2140056903046FFF789FC002800F09A80636ED90731
S2140056A0D8D4A3899A05D5D4A06D00F043FBD1E7E2
S2140056B021463046FFF778FCA38913F4805200F0A9
S2140056C0E180256D5F0778D4180740F1D380226803
S2140056D023690AB1D21A1544A9444FF0010A0027DB
S2140056E0C2E7FFF71BFD94E74FF48062A389E264EC
S2140056F01343A381002F40F0CE80CB46BAF1000FB3
S21400570040F0BA80A389DB0440F1F780206D626820
S214005710216B851A9646002900F0FA80E36BED1A95
S21400572015442069A26B121AAD1A1344AB456CDB04
S214005730EA185A4569D9ABEB050528445B1B84E893
S214005740090041B104F14003994202D03046FFF708
S2140057506DFE002323630822A38923F02003A38180
S214005760002104F15C0000F031FF656E15F00105C4
S21400577003D1A3899B0540F1A3800025284611B0DC
S214005780BDE8F08FA06D00F0D3FAA38903F484730C
S214005790B3F5847F7FF44BAF21463046FFF704FC19
S2140057A0D4F82880B8F1000F7FF447AF1D22636E4F
S2140057B03260D8077FF54BAF4CE7D4F804E0236B94
S2140057C0A5EB0E05002B55D0E26B2369AD1A83E7D7
S2140057D03B464A46E1693046C04701303FF45EAF7B
S2140057E0216B41B104F14003994202D03046FFF7E5
S2140057F01DFE002323630021A389226923F402638C
S2140058002260A38161600822ABE7E56C00236D424D
S21400581005EA0B052A46E1693046C04701303FF4E9
S21400582036AF00222369216B6260236041B104F128
S2140058304003994202D03046FFF7F8FD0023236369
S214005840A389BBEB050B23F02003A38110D02146D0
S214005850304601F023F900287FF419AF63689B45B2
S2140058603FF615AF2268A3EB0B035A4484E80C00FE
S214005870082275E723692FE7216B002946D0626866
S214005880E36B4DE7E1693B463046C047411C0546A1
S2140058900ED0A38916E701AAB4F90E10304600F020
S2140058A041F800287FF4F3AE059B09EB030B25E7D0
S2140058B0636EDA073FF5CEAEA3899B053FF5CAAE09
S2140058C0A06D00F037FAC7E62146304600F062FACF
