S01700004469676974616C4D6F7665303130302E73726563F7
S21400000000800010D115000005160000071600003D
S214000010091600000B1600000D1600000000000078
S2140000200000000000000000000000000F160000A6
S2140000301116000000000000131600001516000040
S214000040191600001B1600001D1600001F160000E3
S21400005021160000231600002516000027160000B3
S214000060291600002B1600002D1600002F16000083
S2140000703116000033160000351600003716000053
S214000080391600003B1600003D1600003F16000023
S21400009041160000431600004516000047160000F3
S2140000A0491600004B1600004D1600004F160000C3
S2140000B05116000053160000551600005716000093
S2140000C0591600005B1600005D16000010B5054CC2
S2140000D0237833B9044B13B10448AFF300800123EF
S2140000E0237010BDA00A001000000000640B010081
S2140000F00C4B43B10C4810B50C49AFF300800C48CC
S214000100036823B910BD0A48036833B97047094B22
S214000110002BF7D0BDE810401847064B002BF5D053
S214000120184700BF00000000640B0100A40A00107E
S214000130A00A001000000000154B002B08BF134B50
S2140001409D46A3F5803A00218B460F461348144A75
S214000150121A05F0BBFB0F4B002B00D098470E4B36
S214000160002B00D098470020002104000D000D4809
S214000170002802D00C4809F0DDFF04F02DFF200017
S214000180290000F073FB01F00DFF00BF000008001F
S214000190008000100000000000000000A00A001010
S2140001A0B415001035A10000D5B000001E4A1F4B44
S2140001B01169506870B51A69086059681C4B11605F
S2140001C059681A691B4B11605A681B4E1B693046EA
S2140001D01A601A4D032102F001F80321184801F0B5
S2140001E0B3FA184C2846032101F0F8FF03211648FD
S2140001F001F0AAFA2046002101F0F0FF134B30462A
S214000200DA685B681249136001F0ECFF2846114972
S21400021001F0E8FF2046104901F0FCFF2046BDE84B
S21400022070400E4901F0DEBF240F00103C0F001096
S214000230540F00106C0F0010CC0F0010441000106C
S214000240B40F0010C40E00102C100010EC1000109C
S2140002508D080000CD080000290900000D090000E7
S21400026008B5D02200210A4805F030FB4FF41C7276
S2140002700021084805F02AFB14220021064805F054
S21400028025FB00230549064A0B70537008BD00BFC6
S214000290380D0010C80A0010080E00101C0E0010C2
S2140002A0A40E001008B572B6FFF780FFFFF7D8FF60
S2140002B000F0FCFC62B608BD0021054B596053F8FF
S2140002C0082F002AFAD10522024B5A70704700BF49
S2140002D0380D0010A40E0010FFF7EEBF2DE9F04118
S2140002E02D4F02782D4C39784378227008096370B8
S2140002F000F07EFFA070387800F07AFF7B78E07020
S214000300180900F075FF2071787800F071FFBB784F
S2140003106071180900F06CFFA071B87800F068FFF3
S21400032004F10805E07107F104081D4E00E01D46C3
S2140003303B785B064ABFD8F80040746808F10408AA
S21400034024F07F44200D00F053FF2870200C00F0AE
S2140003504FFF6870C4F3073000F04AFFA870C4F37C
S214000360072000F045FFE870C4F3071000F040FFD8
S2140003702871E0B200F03CFF56F8082FAB1D03F8DA
S214000380010C002AD3D1AA7172B63B7862F38613A9
S2140003903B7062B6BDE8F081080E0010200E00101B
S2140003A0380D001070B50646007800F011FF040105
S2140003B0707800F00DFFE4B20443B07800F008FF58
S2140003C0184DE4B2000145F83400F07800F000FF64
S2140003D055F834301843000145F83400307900F001
S2140003E0F7FE55F834301843000145F834007079AC
S2140003F000F0EEFE55F834301843000145F834009E
S214000400B07900F0E5FE55F834301843000145F8A1
S2140004103400F07900F0DCFE55F83430184345F827
S214000420340070BD380D0010F8B50546007800F0B1
S214000430CFFE0601687800F0CBFEF6B20643A87839
S21400044000F0C6FEF6B24C4F06EB4606F600BC19A8
S2140004500001A074E87800F0BBFEA37C1843A074EB
S214000460287900F0B5FE0001B851687900F0B0FEBA
S214000470BB5918430001B851A87900F0A9FEBB5932
S21400048018430001B851E87900F0A2FEBB591843A2
S2140004900001B851287A00F09BFEBB5918430001B2
S2140004A0B851687A00F094FEBB591843B851A87A40
S2140004B000F08EFE00016060E87A00F089FE636856
S2140004C0184300016060287B00F082FE63681843D2
S2140004D000016060687B00F07BFE636818430001E3
S2140004E06060A87B00F074FE6368184300016060DB
S2140004F0E87B00F06DFE636818436060287C00F0BF
S21400050067FE0001E074687C00F062FEE37C18433E
S214000510E074A87C00F05CFE00012075E87C00F02A
S21400052057FE237D18432075287D00F051FE0001FC
S2140005302082687D00F04CFE238A1843000120824A
S214000540A87D00F045FE238A184300012082E87D3E
S21400055000F03EFE238A184300012082287E00F029
S21400056037FE238A184300012082687E00F030FEA2
S214000570238A18432082F8BDC80A0010F8B505463D
S214000580007800F025FE0601687800F021FEF6B23D
S2140005900643E878AF7800F01BFE0401287900F0E7
S2140005A017FE0443687900F013FE24010443A8797B
S2140005B000F00EFE24010443E87900F009FE240151
S2140005C00443287A00F004FE2401F6B2204372B6F3
S2140005D02B2F0DD00D4901EBC6025368984283BFFE
S2140005E051F83610C01A081A181A506062B6F8BDCC
S2140005F0064A02EBC603596852F836200844904271
S21400060028BF801A586062B6F8BD00BF380D0010CB
S21400061070B51A4A44781A4B02E052F80C3F7BB188
S21400062093F90010A142F8D193F90110837899420A
S214000630F3D103780446522B03D0572B0CD070BD51
S21400064070BD9368002BFBD0013098470D4A137895
S21400065043F00103137070BD5368002BF0D00026E2
S214000660033098470749084B0A786578A07842F027
S21400067001020A709E701D70587070BD1000010057
S2140006800C000100BC0A0010200E001008B500F097
S214000690AFFB074B93F90020002A00DB08BD1A7851
S2140006A004486FF3C7121A70BDE80840FFF7B0BFE2
S2140006B070120010A411001008B5074A1378D90765
S2140006C005D523F001030548137000F041FDBDE891
S2140006D0084000F02FBC00BFBC0A0010200E00101F
S2140006E0F8B501222E492F4801F044F801222E4980
S2140006F02E4801F03FF82E4F01222E492E4801F0D9
S21400070039F82E4D2E4C01222E492F4801F032F892
S21400071038462E4901F040FD2D4E2A4621463846E1
S21400072002F01CFB00222B492B4801F023F8304630
S2140007302A4901F031FD2A4621463046284E02F06D
S2140007400DFB00222749284801F014F830462749B7
S21400075001F022FD2A462146304602F0FFFA012229
S2140007602349244801F006F800222349234801F0D3
S21400077001F800222249234800F0FCFF002222490B
S214000780224800F0F7FF00222149224800F0F2FF3D
S214000790BDE8F84000222049204800F0EBBF00BF2B
S2140007A032C00920240F001034C009203C0F00106E
S2140007B0CC0F001035C00920540F0010C8000010E0
S2140007C06D21000037C009206C0F001009C00920F9
S2140007D04410001008C00920B40F001007C00920FC
S2140007E0C40E001006C009202C1000100FC00920EF
S2140007F018C00920EC10001000C00920840F00105B
S21400080001C009209C0F001012C00920A41000107F
S21400081011C00920BC10001010C00920D410001010
S21400082008B572B60A4A0B4B11781B786FF30001B5
S214000830C3F30113117033B1012B02D1002000F075
S214000840B7F962B608BD012000F0B2F962B608BD7D
S214000850C40A0010C00A001090E80C000133013AE8
S2140008609342436084BF00234360704708B5FFF798
S21400087019FD054CFFF70AFFFFF71EFF2378DB077D
S214000880F8D5FFF7CDFFF5E7C40A001008B50C4809
S21400089001F0D8FC70B10B4803685BB10A4A516995
S2140008A052680968114206D04268002A18BF1346EB
S2140008B0013B436008BDBDE80840FFF7CDBF00BF61
S2140008C0CC0F0010380D0010B40F001008B50C48FF
S2140008D001F0B8FC70B10B4883685BB10A4A5169F5
S2140008E052680968114206D0C268002A18BF13462B
S2140008F0013BC36008BD0830BDE80840FFF7ACBF49
S21400090044100010380D00102C10001000F04EB8E7
S214000910044B187810F0030001D0012801D100F034
S21400092047B970471C0E0010FFF7F2BFF0B590E80D
S21400093028008C78EA181444B4FBF3F603FB16443C
S214000940846009784FF43477511AB1FBF3F290F8CB
S21400095012E0144E03FB121206EBCE035968124E39
S2140009600B09A6FB03639442C26007FB131010D367
S2140009701E2D95BF02F5257202F5167204F5257434
S21400098004F5167490420AD3A04294BF00200120BA
S214000990F0BD02F51672904204F52574F4D20120DB
S2140009A0F0BD00BF380D0010065BB005064A074BC9
S2140009B0D16850681A6908605968054B11605A6812
S2140009C01B691A60704700BFEC1000103C0F001047
S2140009D0240F001070B4036842688C781A441444DC
S2140009E0B4FBF3F503FB154484600978867C521A41
S2140009F0B2FBF3F10E4D03FB112205EBC6056D6845
S214000A009442B5FBF3F1C26003FB115308D39A423C
S214000A100BD89C4238BF002070BC28BF012070470E
S214000A209A42F6D870BC01207047002070BC704710
S214000A30380D00100378244A03F03F036FF3451384
S214000A4003705169536809680278194214BF01217E
S214000A5000211E4B61F3041202705A695B6811682C
S214000A600278194214BF01210021194B61F3C30219
S214000A7002705A695B6811680278194214BF012136
S214000A800021144B61F3820202705A695B68116898
S214000A900278194214BF6FF001014FF0FF310E4B80
S214000AA061F34102027059695A6809680378114275
S214000AB014BF6FF001024FF0FF3262F30003C3F180
S214000AC01F030370704700BFD4100010BC10001046
S214000AD0A41000109C0F0010840F001003782DE95E
S214000AE0F0419B0706462F4C26D12F4D02E054F8C6
S214000AF0183FE3B1E37C002BF9D104F11500FFF7B2
S214000B0099FF617D7170A37C01EB410155F823309C
S214000B1019444B78002BEAD02046FFF75BFF33786A
S214000B2060F3C713337054F8183F002BE2D196F9E0
S214000B300000C00FBDE8F0811C4F03E054F8183FDA
S214000B40002BF4D0E57C012DF8D104F11500FFF759
S214000B5071FF637D7370A27C03EB430357F822207A
S214000B6002EB030898F80130002BE7D0237D93B9F9
S214000B70337865F3C71358B200283370D9DA414684
S214000B802046FFF727FF337860F3C71358B20028D4
S214000B903370D3DBCDE741462046FFF7C7FE054658
S214000BA0E6E700BFC80A0010E8000100D800010010
S214000BB010B5124C124A2378516860F30103DBB279
S214000BC0D26843F040036FF3C71320466160A2600B
S214000BD02370FFF783FF28B9A0700A4BDA685B68BA
S214000BE0136010BD084A094B11695068DA6808603E
S214000BF05B681360A3780133A370EEE7080E00105D
S214000C00380D0010240F0010EC1000103C0F0010E0
S214000C1010B50446044B03F134024260036001F051
S214000C2009FC204610BD00BFA0030100A0F104008F
S214000C30EEE700BF70B5134A134C12782378934240
S214000C400FDB01220021114801F052FB0023104A5D
S214000C50104C1178104863F3C7112370037011709D
S214000C6070BD0E4A0E4DD65C0E4901330748012270
S214000C7023702E7001F03CFB29780B48BDE87040CD
S214000C8001F022BCB9120010B81200101C1100109E
S214000C904413001045130010431300107412001084
S214000CA042130010350C000004110010022210B58B
S214000CB0074C084B20464FF4E1311A7001F010FB48
S214000CC02046BDE810400022034901F011BB00BFDA
S214000CD01C110010E41100107510000030B40D4B0C
S214000CE01B78022B0DD0032B09D1002301210A4DBE
S214000CF00A4C0B480B4A2B8023700370117030BCD3
S214000D007047002205480749034C02700B7022808A
S214000D1030BC70476E120010E61100106011001013
S214000D2071120010E4110010164B17491A780B7850
S214000D30022A83EA02030B701BD0032A0AD1134B44
S214000D401B883F2B02DC0021114AD1540322114B91
S214000D501A7070470D4B30B418883F280BDD002200
S214000D6001240C480C4D0A7004702A701A8030BC9E
S214000D707047FFF7B3BF064C411C2254198030BCA5
S214000D80704700BF6E12001060110010E6110010D0
S214000D9064110010E411001071120010F8B501265D
S214000DA00D490E4A0B780E4C63F07F0392F800E074
S214000DB00C4D6FF300030C4F0B7004F11800324615
S214000DC00A4985F800E03E7001F092FA297820463C
S214000DD0BDE8F84001F078BB441300107412001010
S214000DE00411001042130010B8120010350C000059
S214000DF01948038833B3194AF0B40027184C194D24
S214000E0002F1400601E0B24212D072B621884B1CB5
S214000E109BB27F2B98BF23800388695C03F1FF3366
S214000E2088BF2780038062B602F8011B0029EAD13A
S214000E30B0F90030002B06DB0B4A137843F0800332
S214000E401370F0BC704772B60022084B02801B88F5
S214000E50238062B6F5E700BF68120010A4110010E8
S214000E606A120010E8110010701200106C120010C8
S214000E70032102202DE9F04FDFF8A8A0DFF8A890A4
S214000E80BAF80020DFF8A4B0244CA2F1400E0D46BC
S214000E900E464FF0000CB9F800301FFA8EFE8BF8A5
S214000EA00010DFF88C8004F8010B07E0724586EA34
S214000EB00006FDB221464FF0010C25D021465C1CF1
S214000EC018F80300A3B2013A802B05F1010792B28D
S214000ED028BF002308704C1C0028E7D1A9F8003072
S214000EE0AAF80020BCF1000F15D10320002312043D
S214000EF04E7008708B7005D5094AAAF80030138822
S214000F00A9F80030BDE8F08FA9F80030AAF8002054
S214000F108BF80050E9E78BF80050E6E774120010F3
S214000F20401300103C1300103E130010B9120010BE
S214000F30BC1200100B4B93F90030002B10DB10B5E1
S214000F40094B1C7814B9094B1B8803B910BDFFF771
S214000F508FFF72B6064B1C70FFF720FF62B610BDFF
S214000F60704700BF44130010721200103C130010AC
S214000F704313001070B4124E124D33882988124C59
S214000F8002E0E05C80B1114601339BB24A1E802B22
S214000F9092B228BF00231004F3D500220B4B2A8000
S214000FA01B88338070BC704701339BB2802BA1F145
S214000FB0020114BF33803080298070BC704700BFA8
S214000FC06A12001068120010E81100106C1200106F
S214000FD0F8B50B4C074623887F2B0CDC09490A4ED4
S214000FE00D8801336A1C92B27F2A88BF002277558B
S214000FF00A802380F8BDFFF7BDFF2388EEE700BF19
S214001000681200106C120010E811001038B5441E6B
S21400101000F13F0503E0FFF7DBFFAC4203D014F816
S214001020010F0028F7D10020BDE83840FFF7D0BFF9
S21400103038B50A4C0A4B22781B789A4209D000230E
S21400104001210848084A094D2370037011702B804F
S21400105038BD0748FFF7DAFFF1E700BF6011001060
S2140010606E12001071120010E4110010E61100104C
S2140010706411001008B50D4801F032FA0C4B0D4A09
S2140010801B781070022B0CD0032B06D0012B00D03F
S21400109008BDBDE80840FFF721BEBDE80840FFF7E1
S2140010A0C7BFBDE80840FFF73FBE00BF04110010F1
S2140010B0E41100106E12001070B4124E124D3388F8
S2140010C02988124C02E0E05C80B1114601339BB2E5
S2140010D04A1E802B92B228BF00231004F3D50022AC
S2140010E00B4B2A801B88338070BC704701339BB241
S2140010F0802BA1F1020114BF33803080298070BCA0
S214001100704700BF3E1300103C130010BC120010C6
S21400111040130010F8B50B4C074623887F2B0CDCD9
S21400112009490A4E0D8801336A1C92B27F2A88BF8D
S214001130002277550A802380F8BDFFF7BDFF23887D
S214001140EEE700BF3C13001040130010BC12001066
S21400115038B5441E00F13F0503E0FFF7DBFFAC4265
S21400116003D014F8010F0028F7D10020BDE838405E
S214001170FFF7D0BF10B50446054B03F134024260BA
S214001180036001F057F9204602F00CFB204610BD24
S214001190A0030100A0F10400ECE700BF10B5074C67
S2140011A0074A20460749002301F05CF82046BDE8C0
S2140011B01040054A054901F0D1BD00BF04110010DA
S2140011C003C0092002C00920C8000010110C00004E
S2140011D0A0F13003DBB2092B08D900F0DF00A0F144
S2140011E04103052B8EBFFF233738C3B2184670471E
S2140011F000F00F0303F13000392888BF03F13700F1
S214001200704700BF4FF46D43CEF20003F0B49F6802
S2140012109A683B46BAB953F8045B4FF08054C4371B
S21400122025601A4652F8046B251D66605C68131D1F
S2140012306C602C1DBB42F4D14FF46D424FF08053CE
S214001240CEF200029360103043F82010F0BC7047D6
S214001250036870B500211D6901220446A847431C97
S21400126005460ED0216802220E6920460021B047AE
S21400127022680646136920462946002298473046CB
S21400128070BD0646FBE700BF0D4B0E4A30B4026049
S21400129003F58074002501E0A3420FD01A4652F8E9
S2140012A0041B814208BF42F8045C134653F8042B23
S2140012B08242F1D1A34243F8045CEFD130BC7047C0
S2140012C0481300103801010038B50F4A0F4B04468A
S2140012D00260002503F5807001E083420FD01A46B5
S2140012E052F8041B8C4208BF42F8045C134653F8BD
S2140012F0042B9442F1D1834243F8045CEFD120469C
S21400130002F050FA204638BD38010100481300109C
S214001310074B186800B170474CF202014CF203020A
S2140013200448C2F20901C2F2090200F067BC00BF1D
S2140013304814001084150010F0B50F4685B03049EB
S214001340064604F099FF0446002836D030462D495C
S21400135004F092FF60B330462B4904F08DFF00285E
S2140013602FD02A48002406E05D680134181D35B1E8
S2140013700134402C29D04568031D002DF4D1317866
S2140013803A2936D002A8314600F08CFE02A800F0BA
S214001390DBFED0B102A800F0C3FEC8B102A800F080
S2140013A0C9FE03468BB11A49E01C41F8243002E01E
S2140013B0FFF7AEFF012005B0F0BDFFF7A9FF2046FE
S2140013C0F9E7FFF7A5FF0220F5E74FF0FF30F2E759
S2140013D002A800F09DFE05460028F6D0026802A886
S2140013E0966800F089FE3A4601462846B04703460E
S2140013F0D8E73046074901AA04F0CCFE019BD1E7A6
S214001400F80001001C010100000101004413001057
S2140014104813001060010100022808B50BDD084BD8
S214001420C21E53F82200002143F8221028B1036898
S2140014305A68904708BD002008BD4FF0FF3008BD31
S214001440481300100228F8B50D46174628DC1D493B
S2140014500A68002A2DD00FB32C46EE1914F8011B8B
S214001460ED43AB19184803F0010500F091FDB442B6
S21400147014D035B114F8011B134800F089FDB442AE
S2140014800CD0254615F8011B0F4800F081FD617849
S2140014900D486C1C00F07CFDB442F2D13846F8BD15
S2140014A00A4B033853F8200040B103681B6898477E
S2140014B0F8BDFFF72DFF002FCED1EFE74FF0FF303E
S2140014C0F8BD00BF48140010841500104813001023
S2140014D0022810B50C460ADD0A4B033853F82000E4
S2140014E060B103689B6898470146084610BD0648E9
S2140014F000F048FD01212070084610BD4FF0FF3176
S214001500F3E700BF4813001084150010022808B542
S21400151008DD074B033853F8200028B10168CA6875
S214001520904708BD012008BD4FF0FF3008BD00BF42
S21400153048130010022808B508DD074B033853F897
S214001540200028B103681B69984708BD002008BD25
S2140015504FF0FF3008BD00BF48130010022808B542
S21400156004D84FF400504860002008BD02F090FDFB
S214001570092303604FF0FF3008BD00BF08B540F2F6
S214001580DC03C1F20003186840F26411C068C0F2C0
S214001590010103F03BF8012000F004FD08B501202E
S2140015A000F000FD084A13681818EFF30881884217
S2140015B002D2106018467047044B0C221A604FF097
S2140015C0FF331846704700BFCC000010B01500105F
S2140015D00749084A084B9A42BEBF51F8040B42F826
S2140015E0040BFFF7F8BF0548804705480047000092
S2140015F0AC0D0100C8000010A00A00106116000023
S21400160039010000FEE7FEE7FEE7FEE7FEE7FEE73D
S214001610FEE7FEE7FEE7FEE7FEE7FEE7FEE7FEE79D
S214001620FEE7FEE7FEE7FEE7FEE7FEE7FEE7FEE78D
S214001630FEE7FEE7FEE7FEE7FEE7FEE7FEE7FEE77D
S214001640FEE7FEE7FEE7FEE7FEE7FEE7FEE7FEE76D
S214001650FEE7FEE7FEE7FEE7FEE7FEE7FEE700BF83
S2140016604FF44042C4F20F02202330B4C2F8A03137
S214001670D2F8A001800651D44FF44043C4F20F03C1
S21400168000250221C3F804110124C3F8A851AA209A
S214001690C3F8AC5155220B25C3F80C411946C3F8C4
S2140016A08450C3F88C00C3F88C20C3F88040C3F87D
S2140016B08C00C3F88C20D1F888004FF440434201D8
S2140016C0C4F20F03F7D50322C3F88020AA205522C0
S2140016D0C3F88C001946C3F88C20D1F888004FF464
S2140016E0404310F0407FC4F20F03F6D048F2DE729B
S2140016F0C0F2284205210020C3F80811C3F8C42010
S214001700C3F8C8011A6822F4704121F03A0040F488
S214001710405242F03A01196030BC7047D2F8A0112E
S2140017204906A9D4D2F8A0114906F7D5A4E700BF08
S21400173010B50021044604F01F0400F047F801200D
S21400174000FA04F010BD00BF006800F061B800BFEA
S21400175031B9836841681A6822EA01021A60704744
S214001760012900D0704783684268196841EA020080
S21400177018607047F8B54B1C0D46044616461DD03B
S21400178021600846FFF7D4FF25F01F0303F11C0174
S21400179003F1180703F1140260602161E7606261DB
S2140017A0A36020463146FFF7D3FF2EB92846032113
S2140017B0BDE8F84000F02CB8012E00D0F8BD284651
S2140017C00221BDE8F84000F023B800BF431C10B467
S2140017D01BD000F16040A0F51C2404F00F03580055
S2140017E0032202FA00F201FA00F14FF44043200906
S2140017F0C4F2020353F8204024EA020243F82020F1
S21400180053F82020114343F8201010BC704700BF47
S214001810421C70B430D000F16040A0F51C20C1F32B
S214001820800400F01F0504FA05F542094FF4404312
S214001830C4F202031A3253F8226026EA050643F879
S214001840226053F82260354343F82250A4B900F0D2
S2140018500F046200032505FA02F501FA02F20009F8
S214001860103053F8201021EA050443F8204053F8BE
S2140018702040224343F8202070BC704708B54FF440
S2140018800043C4F209039968C1F34201012903D059
S214001890022900D008BD0021034880680028F9D03E
S2140018A0024A1368984708BD4C1400105C140010D8
S2140018B008B54FF44043C4F209039968C1F34201E6
S2140018C0012903D0022900D008BD00210348C068C2
S2140018D00028F9D0024A1368984708BD4C14001037
S2140018E05C14001008B54FF44043C4F20003996836
S2140018F0C1F34201012903D0022900D008BD00210E
S214001900034800680028F9D0024A1368984708BDC3
S2140019104C1400105C14001008B50023C4F2010338
S2140019209968C1F34201012903D0022900D008BDFD
S2140019300021044840680028F9D0034A13689847F5
S21400194008BD00BF4C1400105C1400102DE9F04FC9
S21400195000230468C4F2010389B09C42079000F09B
S214001960E38040F393804FF40043C4F209039C42A3
S2140019704FF4404000F0C980C4F20900844240F0B1
S2140019808B804FF44043C4F20F03D3F8AC2122F40B
S2140019904020C3F8AC01D3F8AC2142F48020C3F851
S2140019A0AC01724B0801D3F800A0BAFBF0F300FBC1
S2140019B013A29BB20693002A00F0A5800846590899
S2140019C001910CF0DDFF019A064606989042C0F0A1
S2140019D09A80069C01250021B04602940495039146
S2140019E00020012505906A1CD5B2102D5DD0019807
S2140019F00CF0C2FF4FF083410DF016F8012481462B
S214001A0005E0019A0292601CC4B2AC42EBD050468C
S214001A100CF0B2FF074620460CF0AEFF8346284681
S214001A200CF0AAFF014658460DF0B2F84FF07E5172
S214001A300CF0F2FE014648460CF0F6FF014638462A
S214001A400DF0A6F8014630460CF0E4FE31460DF0E7
S214001A509FF80CF03FFB02F009FB0CF087FE4146B6
S214001A6007460DF07FF90028CDD041F26F213846A9
S214001A70C3F683210DF076F9B84604950394002842
S214001A80BFD0019B012102930591BCE74FF4404073
S214001A90C4F20000844258D0354D36492E68F068AE
S214001AA002F0B4FD012000F07DFA019B069C03F1D4
S214001AB0010B1FFA8BFB5C45CDF804B002D30599E9
S214001AC000298DD0029C0398049A079940EA0213D5
S214001AD006940C68DBB2227B069942F080022273E1
S214001AE0079C080A2268079C10712068C9B201701A
S214001AF0226882F828302368197B01F07F0018736B
S214001B0009B0BDE8F08F1023E5E7C4F20F00D0F867
S214001B10AC3123F44032C0F8AC21D0F8AC3143F4F9
S214001B208032C0F8AC213CE74FF44040C4F20F00CE
S214001B30D0F8A83123F44072C0F8A821D0F8A83114
S214001B4043F48072C0F8A8212BE74FF44043C4F258
S214001B500F03D3F8A82122F0C000C3F8A801D3F8D9
S214001B60A82142F04000C3F8A8011AE7D0000010F0
S214001B70DC000010DC01010038B5013B012B0D46EE
S214001B8028D84C1F032C27D8042A0ED8DFE802F0EA
S214001B9016191C1F03003022082144EA83030B4356
S214001BA000681A43D1B2017338BD1049104D286839
S214001BB0C06802F02BFD012000F0F4F90022114667
S214001BC0EBE700220821E8E710220821E5E72022BB
S214001BD00821E2E70749E9E7054C074923682A4652
S214001BE0D86802F013FD012000F0DCF94402010081
S214001BF0DC000010E8010100040201002DE9F843B2
S214001C000F460546A1493846164600F019FAA0497F
S214001C100446304600F014FA0146204600F0F8F973
S214001C20431C044600F029810023C4F201039842B5
S214001C3028607CD03CD94FF40042C4F2090290429E
S214001C4000F0DD804FF44041C4F20901884235D1EE
S214001C504FF44042C4F20F02D2F8C4104FF001080D
S214001C6041F00070C2F8C40084F808802B68002495
S214001C705C6028464FF41651FFF768FE224643463E
S214001C8028460821FFF778FF3846804900F09AF981
S214001C9030467F4900F096F938462146FFF7B8FDF2
S214001CA030462146FFF7B4FD03226A60BDE8F8839C
S214001CB04FF44040C4F20000844268D04FF001095F
S214001CC084F808902B684FF000084FF41651C3F8BC
S214001CD004802846FFF73AFE42464B46082128462F
S214001CE0FFF74AFF3846694900F06CF93046684904
S214001CF000F068F938464146FFF78AFD304641460F
S214001D00FFF786FD4046C4F2010084423BD000F255
S214001D10A6804FF44042C4F20002944263D04FF4CF
S214001D204040C4F2000084425FD0BDE8F8834FF420
S214001D304040C4F20F00D0F8C4304FF0010843F022
S214001D401002C0F8C42084F80880296800244C607B
S214001D5028464FF41651FFF7F9FD2246434628461B
S214001D600821FFF709FF3846484900F02BF93046AE
S214001D70474900F027F938462146FFF749FD304627
S214001D802146FFF745FD01206860BDE8F8834FF463
S214001D904042C4F20F02D2F8C4104FF0010841F0DE
S214001DA00803C2F8C43084F8088028680024446019
S214001DB04FF416512846FFF7C9FD224643462846EB
S214001DC00821FFF7D9FE3846304900F0FBF83046C8
S214001DD02F4900F0F7F838462146FFF719FD304640
S214001DE02146FFF715FD00246C602A4B2A48012483
S214001DF0294608221C60BDE8F84303F08DBC4FF46A
S214001E004041C4F20F01D1F8C4004FF0010840F081
S214001E108073C1F8C43084F808802A6800245460AF
S214001E2028464FF41651FFF791FD224643462846B2
S214001E300821FFF7A1FE3846144900F0C3F83046E3
S214001E40134900F0BFF838462146FFF7E1FC30465C
S214001E502146FFF7DDFC02216960BDE8F8834FF4F8
S214001E600041C4F209018C42F5D04FF44043C4F25D
S214001E7009039C427FF453AF16E7084D08492E68C5
S214001E80F06802F0C3FB012000F08CF88402010029
S214001E90700101004814001084150010DC000010CA
S214001EA06402010010B441F24C4341F25C444068C5
S214001EB0C1F20004C1F20003216043F8202010BCE8
S214001EC0704700BF70B503680024C4F20104A34243
S214001ED049D028DD4FF40046C4F20906B3423FD08D
S214001EE04FF44044C4F20904A34222D1214D0824F1
S214001EF01ABB012202FA01F6D1F1010138BF002116
S214001F0002FA01F15D6825EA06055D60006843682F
S214001F10194207D102FA04F24FF46141CEF20001F1
S214001F20C1F8802070BD4FF44045C4F20005AB42B6
S214001F301CD000252C46002ADBD0012606FA01F02C
S214001F405A6864B210435860204606FA04F42946DC
S214001F50FFF758F94FF46143CEF200031C6070BDE2
S214001F60054D0724C4E7054D0624C1E7044D0524A6
S214001F70BEE700BFB11800007D1800001919000068
S214001F80E51800000268137DD907FCD51078704765
S214001F900268137D03F02000C3B2002BF9D0C9B24B
S214001FA01170704710B5044600F00AF820B904B95D
S214001FB0FEE700F019FCFBE700F060F8F7E700BF6B
S214001FC000F068B8431C10B5044613D00B68581CC4
S214001FD004D110E051F80C3F5A1C0CD09C42F9D1A9
S214001FE020468968FFF7F2FB20460221BDE8104034
S214001FF0FFF70EBC10BD044804490268D06802F022
S21400200005FB0120FFF7CEFFDC000010F002010008
S214002010884208B503D0421C02D0013102D108BD67
S214002020084608BD044B05491868C06802F0EEFA79
S2140020300120FFF7B7FF00BFDC000010040301001B
S21400204008B5431C0BD00B685A1C04D108E051F8A5
S2140020500C3F5A1C04D09842F9D1486808BD08BD08
S214002060044805490268D06802F0D0FA0120FFF75C
S21400207099FF00BFDC0000101803010030B585B0E2
S2140020806D46182420462946ABBE0446204605B0B9
S21400209030BD00BF4EF6F053CEF20003186800F0D5
S2140020A00100704738B50022026042600B78044693
S2140020B02F2B01D0204638BD48780028FAD0481C7F
S2140020C020604B782F2B12D0A3B18D1C114600E058
S2140020D042B125602A782B46013101352F2AF7D1E7
S2140020E00133236000F01AFC6060204638BD0346CA
S2140020F01146F5E71946F5E700687047406808B5E9
S21400210020B100F02BFC431E5842584108BD00BFCA
S21400211010B50446FFF7F2FF00B1606810BD00BFBF
S214002120406808B528B100F019FCD0F1010038BFAE
S214002130002008BD10B50446FFF7F2FF10B1606836
S21400214000B1043810BD00BF4068003018BF012041
S214002150704700BF012902D0022903D070472830FB
S21400216000F042BC443000F03FBC00BF044A10B54B
S214002170044640F81C2B00F0A7FA204610BD00BF0E
S2140021804803010010B50446FFF7F0FF204601F0B3
S21400219009FB204610BD00BF38B50F4B04460D4660
S2140021A040F8283B002100F017FC002104F1440011
S2140021B000F012FC42F2551229462346C0F20002F5
S2140021C004F11C0000F040FA201D29460022FFF70B
S2140021D0D1FA204638BD00BF480301000430FFF79F
S2140021E0B3BA00BF10B50A46044659B100F128003C
S2140021F000F0F6FB012104F11C000A46BDE8104081
S21400220000F06CBA00F11C000121BDE8104000F09F
S21400221065BA00BF10B50A46044659B100F144003D
S21400222000F0DEFB04F11C0002210122BDE8104094
S21400223000F054BA00F11C000221BDE8104000F086
S2140022404DBA00BF82698368106818420CBF002030
S21400225001207047183000F065B800BF183000F055
S2140022605FB800BF38B504461D4600F1180000F000
S21400227017F82046294600F003F940F29833C0F2DA
S214002280010303F108023C3384E80C00204638BD05
S214002290C1EBC10100EB8100083000F0A5BB00BF18
S2140022A070B504460D4600F108000021164600F001
S2140022B093FB002104F1240000F08EFB2046294603
S2140022C03246FFF79BFC4FF4165342F2912120460C
S2140022D02364C0F200012246FFF7E4FD204670BDED
S2140022E038B505460C46FFF731FB2C6438BD00BFF9
S2140022F038B5144605460A4669B1C4EBC40005EB7A
S2140023008000083000F06CFB284621460122BDE81C
S2140023103840FFF7D7BD2146BDE83840FFF7D2BDAD
S214002320FFF730BE10B50C46FFF732FE204610BD54
S214002330002070472DE9F0418E18B1420F46054641
S21400234030D003688A1B0C46D2435B6A14F8011B24
S21400235002F00108984701301ED0A6421FD0B8F1FF
S214002360000F09D0296828464A6A14F8011B9047CE
S214002370013011D0A64212D0286814F8011B436A17
S214002380284698470130284606D02A6814F8011BCC
S214002390536A98470130EDD1E01BBDE8F081F01B91
S2140023A0BDE8F0810020BDE8F08100BF2DE9F041D6
S2140023B08E18B1420F46054631D003688A1BD143BA
S2140023C09C6A01F00108A047431C3C4624D03C46CA
S2140023D004F8010BA6421CD0B8F1000F06D02B68FB
S2140023E028469A6A9047431C0FD115E0296828466C
S2140023F08B6A98470246511C28460DD004F8012BDC
S21400240029688B6A9847421C06D004F8010BA6423E
S214002410ECD1F01BBDE8F081E01BBDE8F0810020A8
S214002420BDE8F0810020704700207047002070470C
S2140024300020704740F20043C0F2010303F1080297
S2140024403C3310B5044680E80C00406901F088FE75
S214002450204600F085FA204610BD00BFA0F104001B
S214002460FFF7E8BF10B50446FFF7E4FF204601F08B
S21400247099F9204610BD00BFA0F10400FFF7F2BF97
S21400248010B584B0044600F091FA40F20043C0F262
S214002490010303F1080040F260113C3384E80900B0
S2140024A02246C0F2010101A803F04EFE40F254415C
S2140024B0C0F2010101A802F0A1F80021606103F05A
S2140024C025FD204604B010BD38B5044640690D46CB
S2140024D001F014FF61692846BDE8384002F0AAB84A
S2140024E010B50446406901F009FF6069BDE8104078
S2140024F001F016BF2DE9F04F48F28009C4F2020938
S214002500D9F8047083B0D9F80860D9F82450D9F8FF
S214002510284007B3DFF82CB1494A4FF0010A05E01E
S2140025200AFA08F17F1AC9F80C1014D0B7FA87F81F
S214002530C8F11F005FFA80F85BF828000028EFD08B
S21400254013680121019298470AFA08F17F1A019A46
S214002550C9F80C10EAD11EB348F28008DFF8E4A0F0
S214002560DFF8DCB04FF00109C4F2020805E009FA12
S21400257007F2B61AC8F80C2012D0B6FA86F7C7F1DA
S2140025801F00C7B25AF827000028F0D00221DBF857
S2140025900030984709FA07F2B61AC8F80C20ECD1B2
S2140025A02DB348F28007DFF89C90DFF894A04FF038
S2140025B00108C4F2020704E008FA06F2AD1AFA624D
S2140025C015D0B5FA85F6C6F11F01CEB20F2EF3D898
S2140025D006F1200059F820000028EDD00121DAF895
S2140025E00030984708FA06F2AD1AFA62E9D124B329
S2140025F048F28006DFF84C80DFF844900127C4F2EA
S214002600020604E007FA05F2A41AF26215D0B4FA3C
S21400261084F5C5F11F01CDB20F2DF3D805F12000CA
S21400262058F820000028EDD00221D9F8003098474D
S21400263007FA05F2A41AF262E9D103B0BDE8F08FFA
S2140026406014001064140010B1F1FF3F70B525D07F
S2140026504FF4404621F01F0501F01F04C2F20906A0
S2140026601449B5420A600560446006D04CF2400248
S214002670C2F209022034954212D10F4A84600F49F3
S214002680152042F82430FEF7BDFD4FF46143CEF22C
S21400269000034FF400101860002070BD084670BD9F
S2140026A0074C08492568E86801F0B0FF0120FFF7ED
S2140026B079FC00BF6014001064140010F5240000BC
S2140026C0DC0000106804010041F264438268C1F235
S2140026D00003002143F82210704700BF30B403689F
S2140026E04FF44044C2F20904A3422AD04CF24005FB
S2140026F0C2F20905AB4216D0012936D0A34245D016
S214002700AB4201D030BC70474068012101FA00F3AB
S214002710002A4AD148F28002C4F20202506B20EA34
S21400272003015163EEE74368012404FA03F348F219
S2140027308004C4F202040129E3621AD0002AE9D018
S21400274033E04368012404FA03F348F28004C4F239
S21400275002040129E36030D0F2B148F28000C4F2EE
S2140027600200426913434361CCE7A34225D0AB4243
S214002770C8D14368012148F2800001FA03F1C4F28F
S214002780020062B3036B19430163BBE74068012193
S21400279001FA00F3002AE0D148F28000C4F20200F9
S2140027A0426922EA03014161ACE748F28002C4F2C2
S2140027B00202506B03435363A4E74368012148F2C7
S2140027C0800001FA03F1C4F202001AB1036919434A
S2140027D0016197E7026922EA0102026192E7026B51
S2140027E022EA010202638DE700B54CF2320199B08D
S2140027F06846C2F209010122FEF7BCFF4CF2340122
S21400280006A8C2F209010122FEF7B4FF4CF2350118
S2140028100CA8C2F209010122FEF7ACFF4CF2370108
S21400282012A8C2F209010122FEF7A4FF019A039B37
S2140028300A991A600798109B08600D9A96201A60ED
S2140028401399159A116000F01DF80198049B099AD7
S214002850186007990F9B11600D98169A18601399C7
S2140028609620116000F00EF8E0E700BF38B5054688
S21400287000F0FCF8044600F0F9F8001BA842FAD372
S21400288038BD00BF4FF47A7303FB00F0FFF7EEBFCE
S214002890094A8368026053B108490A68824201D136
S2140028A006E01A4653689842FBD14168516070476B
S2140028B043680B60704700BFB80401002415001081
S2140028C00C4A836810B50446026053B10A48026891
S2140028D0944201D10AE00A4651688C42FBD16368F3
S2140028E05360204600F05EFF204610BD6168016020
S2140028F0F7E700BFB804010024150010054B8160FF
S2140029000360027321B104490A6808604260704798
S21400291041607047B8040100241500100E4B70B5D6
S2140029201C6806460D4614B912E0646884B1A368B4
S21400293031462A461846002BF7D003F0A9FD00289A
S214002940F3D1A06803F076FDA842EED1204670BD14
S2140029500024204670BD00BF24150010007B704781
S21400296040F20053C0F2010310B503F134020446EE
S214002970083340F8042F2360FFF78AFF2046FEF74F
S21400298083FC204610BD00BFA0F10400FFF7E8BF9F
S21400299010B50446FFF7E4FF204600F003FF20468C
S2140029A010BD00BFA0F10400FFF7F2BF094B10B541
S2140029B00022044640F8043BFFF7A0FF40F2005315
S2140029C0C0F2010303F10802343384E80C00204609
S2140029D010BD00BF38010100002201604260704750
S2140029E0002301604360704708B5036801460BB1D9
S2140029F0984708BD406810B18A690831904708BDFD
S214002A00174A38B513684BBB4FF44041C4F20F0168
S214002A10D1F8C40001254FF480441560C4F20904BF
S214002A2040F400000F4AC1F8C400236711684DF651
S214002A3083638808C4F21B33A3FB0012910C4B1E61
S214002A40022060600849E36004206560FEF7DAFB58
S214002A504FF46141CEF2000110220A6038BD00BF7B
S214002A6028150010D0000010C12A000008B5054B3C
S214002A70186808B9FFF7C4FF4FF48041C4F2090193
S214002A80886808BD281500104FF48043C4F2090377
S214002A9098615A6942F00100586170474FF48043CC
S214002AA0C4F209035A6922F001005861704700BF5A
S214002AB04FF48043C4F2090301221A60704700BF36
S214002AC070B5FFF7F5FF0E4C0E4E206870B1056826
S214002AD0FFF7CCFF281A00280CDC216832688868CB
S214002AE02060002AF2D048689047EEE7BDE87040C4
S214002AF0FFF7D4BF23681868BDE87040FFF7C4BF6F
S214002B002C1500103015001070B500241026036830
S214002B1084B01546029612689E6900946B468DF83E
S214002B2004400394B0479DF8043003F00603062BD8
S214002B3009BF01202046009B2B6004B070BD00BF7B
S214002B40009890420CBF06200120704710B504463E
S214002B50024B036001F0EEF8204610BD7805010038
S214002B6010B50446044B036001F0E4F82046082143
S214002B7000F0B2FA204610BD7805010038B51546BB
S214002B801C4601F0DBF820B1082206232560E2602F
S214002B90237138BD2DE9F04117461C4606460D4602
S214002BA001F0CCF808B9032C01D9BDE8F0812B68F8
S214002BB03A4631462846BDE8F0415B69184700BFF3
S214002BC0F0B583B0089D0A9917468D4206460B9CC1
S214002BD00BD01946304601F0B1F818B10123256034
S214002BE02771A371002003B0F0BD0999019301F08D
S214002BF0A5F818B10020677103B0F0BD019BE8E7A7
S214002C00F0B41D4CA0F10806616850F8087CC9B104
S214002C10F519A9421BD04A682AB3954204D326E088
S214002C209D42114604D21A4653680C1D002BF7D15C
S214002C3011685518AE4213D040F8043C23685E6015
S214002C40F0BC704740F8041C6660F0BC70470B6828
S214002C504A681F4440F8087C40F8042C6660EFE79A
S214002C600F441760ECE7134604340A46E0E71346C1
S214002C7004340A46DCE700BF3415001030B4184CA4
S214002C8000F108016368082938BF082113B307312B
S214002C901A6821F00701914204D81DE002689142AB
S214002CA005D9034658680028F8D130BC704704336D
S214002CB0521A072A0AD9446845186C601C684250A4
S214002CC021601D6004F1080030BC7047426804466D
S214002CD01A60F7E71846E8E71846231DE8E700BF3E
S214002CE03415001038B500F18005284602F01CFAAD
S214002CF0044638B180220021204602F0E7FD04F1A8
S214002D00800038BD2846FFF7B9FF04460028F1D1F9
S214002D1000F020FD064A80389368984205D9D268AC
S214002D201344984201D2FFF76BBF02F005BA00BF0A
S214002D303415001038B54FF41E65074C2846E5607C
S214002D4002F0F2F9A06020B10023606005604360E5
S214002D5038BDE060606038BD341500100B46014693
S214002D60184601F08FB900BF012810B51AD8BFF376
S214002D705B8FA1F1280353E8002F013A43E80020B7
S214002D800028F8D1BFF35B8F5AB951F81C3C01F10B
S214002D9058040BB1204698472046BDE81040FFF780
S214002DA0B9BF10BD51F8140C00F0C0FC2DE9F0417D
S214002DB004461746884601F0A7F801264368A4F1A2
S214002DC058053344436044F8747C44F8806C44F8F7
S214002DD0788C00F0DFFC44F8700C00F0D3FC472140
S214002DE043222B234FF04E0E5527002604F8581C7E
S214002DF00D4944F86C0C04F857EC44F8501C04F8E1
S214002E00552C04F8542C04F8533C04F8523C04F8AF
S214002E10567C04F8516C28460CF0BCFE284600F0A0
S214002E203DF800F097FC00BF692D000010B501F0DA
S214002E306BF8426804680132426064B194F820205E
S214002E40472A0AD000220260203420460CF0C6FE34
S214002E50204600F023F800F07DFC94F821204E2A4E
S214002E60F0D194F82220552AECD194F82320432A56
S214002E70E8D194F82420432AE4D194F825202B2A7C
S214002E80E0D194F826202B2ADCD194F82720012ABA
S214002E90D8D8626952426261D6E700BF38B50446A8
S214002EA001F032F822780368472AA4F1200105D001
S214002EB0002B31D11C460160204638BD62784E2A70
S214002EC0F6D1A278552AF3D1E278432AF0D12279B6
S214002ED0432AEDD162792B2AEAD1A2792B2AE7D1AF
S214002EE0E279012AE4D854F80C2C002A11DB0132CE
S214002EF045688B4205F1FF3544F80C2C45601CBF35
S214002F0044F8103C01602046646A0CF0A3FA2046A0
S214002F1038BDC2F10102EBE700F01CFC08B500F07A
S214002F20EFFF0246006800283DD090F82030472B7F
S214002F3006D0002320301360BDE808400CF08CBAA1
S214002F4090F821304E2BF4D190F82230552BF0D14A
S214002F5090F82330432BECD190F82430432BE8D163
S214002F6090F825302B2BE4D190F826302B2BE0D18F
S214002F7090F82730012BDCD84369002B05DB013B9A
S214002F8008D05A1C0DD0436108BD0133FBD101693E
S214002F901160F8E7036920301360BDE808400CF0C4
S214002FA05BBA00F0D7FB08BD10B50446024B0360C1
S214002FB0FFF7CCFD204610BDD805010010B504462D
S214002FC0044B0360FFF7C2FD20460C2100F084F896
S214002FD0204610BDD805010070B582B0069C0D468F
S214002FE09442064609D0B068294606680694346AB4
S214002FF0A44602B0BDE870406047194601920093AF
S21400300000F09CFE009B019A0028ECD0062002B03F
S21400301070BD00BF2DE9F04F894681B019461D46A8
S214003020164607460A9CDDF82CB0DDF830A0DDF821
S214003030348000F083FE88B1B9F1000FC8F8004074
S21400304088F804601EDB4C44A2450CBF062401240D
S21400305088F80640002001B0BDE8F08F544518D02F
S214003060B8682B460568CDF83480CDF830A0CDF88A
S2140030702CB00A94EC6932464946A44601B0BDE835
S214003080F04F604719F1020FE4D1012388F80630AB
S214003090E0E75946384600F051FE0028E0D0002010
S2140030A088F8056001B0BDE8F08F00BF2DE9F0415B
S2140030B007460C4615461E46FFF760FD08B1BDE8FC
S2140030C0F081B868334606682146B4692A46A446A5
S2140030D0BDE8F041604700BF00F064BB5028F8B57B
S2140030E054D000F00F040C2C4ED8DFE804F007395B
S2140030F04907174D4D4D4D1F1B071700154655F830
S214003100044B44B100F07006102E08BF11460206AC
S2140031100C4448BF24681C602846F8BD154655F880
S214003120084BEEE7154635F9024BEAE7002415464C
S214003130274615F801EB0EF07F06BE401EF0800F06
S21400314044EA060407F10707F3D11F2FD9D81EF06B
S214003150400FD6D04FF0FF3606FA07F73C43D1E7CC
S21400316000241546274615F801EB0EF07F06BE40F4
S2140031701EF0800F44EA060407F10707F3D1C0E704
S214003180154635F8024BBCE700F074FF033222F018
S214003190030555F8044B1C602846F8BDFF280DD0E3
S2140031A000F07000202815D00AD940280FD05028EB
S2140031B004D0302808D108460CF004BF0020704721
S2140031C00028FBD01028F9D008B500F053FF0846B9
S2140031D00CF0E4BE08460CF0F1BE00BFF8B50C4695
S2140031E015460746002842D00CF0D8FE2860267800
S2140031F00134FF2E32D039463046FFF7CFFF224645
S21400320001462B1D3046FFF769FF04462378601CF5
S214003210FF2B2B7528D00024102322462B7510F880
S214003220011B01F07F039340090644EA030402F100
S2140032300702F4D40444EC600024224603780130EC
S2140032406B7510F8011B01F07F0393401C430B06BF
S21400325002F10702F5D404442C61F8BD68602378B7
S214003260601CFF2B2B75D6D10023EB60E4E7BDE78F
S21400327000232DE9F04F00F0030497B0012C894697
S21400328017460A931ED00ED3022C0AD1394648465A
S2140032900CF06EFE002800F0A580092017B0BDE8EF
S2140032A0F08F00F0E7FE0007F0D40123039300231D
S2140032B016AA42F82C9D009219460C2238460CF0AD
S2140032C0F7F80FE010F0080400F0908016AA42F815
S2140032D02C1D009244F0020419460C223846039432
S2140032E00CF0E6F838460CF05FFE05900028CDD0CE
S2140032F010AB1A46059938460693FFF76FFF394616
S21400330004469DF85400FFF749FF00230DF13C0BDF
S214003310129019460F22CDF800B038460CF0A2F8ED
S2140033200F9B149A23F00103A24203F1FF3675D9CE
S2140033300DF1340A0DF138089DF855500021284645
S214003340FFF72CFF2246534601462846FFF7C6FEE7
S2140033509DF85540054600212046FFF71FFF2A46E8
S214003360434601462046FFF7B9FE9DF85540054600
S21400337000212046FFF712FF2A4601465B462046FC
S214003380FFF7ACFE04460020024614F8011B01F0CD
S2140033907F039340090640EA030002F10702F4D4D3
S2140033A0109B0D9A13449E4231D2039BDB0739D5FE
S2140033B00025049500230D221946CDF800803846D6
S2140033C00A9C0CF04FF8059A0E9BC9F82C20049A1C
S2140033D0C9F82440C9F82850C9F83020C9F8203068
S2140033E006205BE7082017B0BDE8F08F10AB00930F
S2140033F006930D22234621463846D9F820500CF075
S21400340031F8109B9D4212D0022303934FE70E9A89
S21400341013449E4259D3149BA3428DD80025012401
S214003420049507E1039B1B074CD500F093F916ABF8
S21400343043F82C9D0093214623460C2238460CF078
S21400344037F8D9F830300493002B3BD00324D9F852
S2140034502850D9F82C10002DC0F208810DF1340A3E
S2140034600DF13808002316AA42F8289D1946009246
S21400347038461A460CF01CF8002301221946CDF8EF
S21400348000A038460D950CF013F800230F221946BD
S214003490CDF8008038460BF0E5FF00230E9A049D19
S2140034A002F001021543CDF80080384619460F2277
S2140034B00E950BF0FDFF022C00F08280072017B05F
S2140034C0BDE8F08F484600F04FFD0F9B1A46049368
S2140034D0002B7AD100283FF4D9AE149B049A013809
S2140034E00344002A3FF4D2AE002B77D0039A12F0A2
S2140034F00802099200F0F88047254E245520432103
S21400350046224F264FF0520E4FF0000C89F800501E
S21400351089F8014089F8020089F8031089F8042028
S21400352089F8056089F806E089F807C00022079741
S21400353008920025294600E023461C4614F8010B95
S21400354000F07F028A40060645EA020501F10701FF
S214003550F2D41F2905D8420603D501228A405242DA
S21400356015430026314613F8010F00F07F028A400B
S214003570070646EA020601F10701F4D41F2905D81A
S214003580400603D501238B405B421E43002D5CD0D2
S2140035905EDD9DF85400FF2800F0A48000F00703CD
S2140035A0042B3FF67EAE01A252F823F01736000039
S2140035B0A33200001D36000017360000F535000067
S2140035C0484600F033FC072068E6119B1A44049234
S2140035D0002882D1049B002B3FF458AE039B13F0C7
S2140035E001037FF453AE039A12F0080540F097806B
S2140035F0022437E7EB005B42139A12991A444346BB
S214003600FFF76CFD0E9999B1B9F1000F09D1002EA4
S21400361077D0A3198DE7AB005B42EDE76B005B420A
S214003620EAE70AAB0022484600F0A4FB0028EED0EA
S2140036300324079F039BDA0760D4039B190766D40D
S214003640012C3FF43FAF059905E701230893DEE719
S214003650B9F1000F01D0099B5BB36B1C139AC3EB47
S214003660837352F82330002BD1D1E1E7069A38460F
S214003670FFF7B4FD39469DF85400FFF78FFDAA000A
S21400368082F00302D243139E1290B358164433B10D
S2140036903246002352F8041F01330029FAD10422CF
S2140036A0C9F82830C9F82C00C9F83460C9F83020A9
S2140036B0D4E6139F6B1CC3EB837357F823100A9A48
S2140036C007EB83070F9221B9B2E757F8041F0029CA
S2140036D0AED039445B460022484600F04BFB00283B
S2140036E0F3D094E7002387E799F80720012A0CBF58
S2140036F059F8202C09F158020A9217E70DF13808FC
S21400370058E6089B079F002B7FF468AFBEE5012CA8
S2140037103FF48BAE002DBFF6A1AE00F029F81D4693
S21400372002249FE6FFF7BAFB7FE600BF08B5804796
S21400373000F0A0FCFFF7B2FB00F09CFC0D46044630
S214003740FFF7ECFB013501D000F00EFB204600F041
S2140037501BFC00BF08B5034B1868BFF35B8FFFF771
S214003760E5FF00BFD400001008B58047FFF7F2FF62
S21400377008B5034B1868BFF35B8FFFF7F5FF00BF74
S214003780D8000010024B1868BFF35B8F704700BF6D
S214003790D4000010024B1868BFF35B8F704700BF61
S2140037A0D800001001F0C8BC10B50446024B0360F8
S2140037B0FFF7CCF9204610BD3806010010B50446C8
S2140037C0044B0360FFF7C2F920461821FFF784FC7C
S2140037D0204610BD380601002DE9F04F83B0DDF815
S2140037E0309017464A4588469A4605462BD0EE68DE
S2140037F005EBC605EEB1EC68013E14F0020F4FEA89
S214003800242213D014F0010404D018F1030F0DD0B5
S2140038103B689A58A8683A440368CDF80090D3F8F5
S21400382020B041465346D847032806DC083D002E04
S214003830E1D1012003B0BDE8F08F002CFAD040F0B3
S2140038400100C0B2F6E7194600F078FA0028CED09C
S2140038500620EFE72DE9F04F93B01F9C05460B902E
S214003860A0688B46C10609920793DDF870A001D5C3
S214003870AB68A3601E9B9A4500F00B8107990B98D6
S21400388000F05CFA002840F08B80BBF1000FB4BF5C
S21400389006461E9B4FF00102A8BFA3EB0B060023B3
S2140038A0CDF818B0B34608930D931F46099B0A92AD
S2140038B013430C930B9AD2F80C9002EBC908CDF880
S2140038C01490059B002B00F03481D8F80C10A568E6
S2140038D0CA0748BFDAF800004FEA2123119548BF0F
S2140038E0C3580F978DF840708DF841708DF8427070
S2140038F04CBF0C9A099A5344BBF1000F07D05B45A6
S21400390094BF002001200A9EB04200F0BF808E07C0
S21400391005D40699023100F0CB8002F0FD02D8F8FB
S21400392008001E9E016802961D9E0FAD8DE8480099
S2140039300395CD69079B0699A84762799DF84130A3
S2140039409DF842501343062D6371014600F0E8804F
S214003950022D00F0E580089A002A40F08E8022684A
S214003960002A00F0B2800F99914200F0A48000294E
S21400397000F0A780032B94F8069029D9DB0702D520
S214003980A3689E0724D4B9F1000F63D035BB89F035
S2140039900103DBB2032B6BD909F002014D462DE083
S2140039A09DF82430BBF1000FC4F800A02371C0F2CC
S2140039B0D1801E9BDA44534514BF4FF0010A4FF0E6
S2140039C0060A002184F806A0084613B0BDE8F08F6A
S2140039D0B9F1000F21D0002D00F0858085EA09039B
S2140039E0DBB2032B3ED9032DD6DD00230F9A0893B6
S2140039F09DF840302260237105F00201A571002970
S214003A0051D1EB07E0D56379042B00F0A180059B2C
S214003A10A8F10808013B059353E7032D06DDEB07E5
S214003A2040F191800B9B9B689E0714D5069B002B4C
S214003A30C0F2A980069BD3181E9A9A4200F0C08056
S214003A404DB9069B1E9ACB189A4200F0C0804FF0E4
S214003A5001099CE765B185F00103DBB2032B4FF04B
S214003A600109C0D805EA0905EDB2032D00F28580EC
S214003A7001232760A3710893C5E72268002A7FF414
S214003A8072AF0F9900297FF475AFBDE701230D9340
S214003A90BDE71D990B9800F051F900283FF4EEAEF3
S214003AA09DF8243063710021084613B0BDE8F08FFE
S214003AB0A907ACD031E722799DF840100A4322715D
S214003AC0A2E700287FF456AF9EE70F9A9DF8405075
S214003AD0226025712AB153B30B9A9268D2077FF5FC
S214003AE073AF089090E7B9F1030F07DD19F0010FE7
S214003AF03FF44DAF0B9B9B689A0732D50F99069BF8
S214003B00002B4EDB069B1E9ACB189A427FF43FAFE3
S214003B1089F00603DBB2032B59D809F00605A4E7A3
S214003B200F9A9DF84030A571226023714CE70890EB
S214003B306DE70D9BDDF8149053B10A9B0D933BB1D6
S214003B40CDF82890B6E6002D85D14FF00109D6E7CE
S214003B50089939E71BF1020FA5D101230021A371B3
S214003B6032E789F00103DBB2032B81D919F0020F8B
S214003B7084F806903FF447AF95E7002202232260C0
S214003B80A371012120E706998B1C3FF463AF0798C9
S214003B901E9E03680096D3F820901D9BC84781465A
S214003BA019E7069EB31C3FF4F2AE07981E9A036808
S214003BB000921D6A0A461D9B3146A84705460DE73A
S214003BC06DB185F00603DBB24FF0060909E7062261
S214003BD09DF840302160A27123710021F4E64FF079
S214003BE00609D9E62DE9F04F89B004460390019105
S214003BF017469846FEF7C2FF814600285AD1D8F8E5
S214003C000830DD06009301D5A3680093039A009B55
S214003C10D56803F00103002602EBC5040293002DCD
S214003C2041D0E268009B12F0020B04968DF81460F7
S214003C300693079602F0010A01D1029B7BB3002F80
S214003C403CD01212BAF1000F01D03B689A583A44A1
S214003C50A06801990368D3F8189004ABC84781465A
S214003C60E8B1079B082B2BD09DF81430032B06DDFC
S214003C70BBF1000F03D123F002038DF81430D8F8FF
S214003C800C1019B3D8F80030049A934248D173B395
S214003C9098F804309DF81420134388F80430013D4A
S214003CA0083C002DBDD198F8049019F1000918BF02
S214003CB04FF00109484609B0BDE8F08F3A46C7E71D
S214003CC0BAF1000FD0D0A3680793CDE704AB0FCBB3
S214003CD088E80F0098F80430032BEBDD980716D51C
S214003CE0039B9B68D907E5D5013D083CD9E70798B3
S214003CF0082805D0082903D000F020F80028C7D1EE
S214003D000223484688F8043009B0BDE8F08FDA0789
S214003D10D0D5039B9B689B07CCD5013D083CC0E7EC
S214003D20002202234846C8F8002088F8043009B06C
S214003D30BDE8F08F704700BF00207047814211D069
S214003D4008B5406803782A2B0AD049680B782A2BD6
S214003D5008BF013102F090FAB0FA80F0400908BDC1
S214003D60002008BD012070471EB400F091F81EBC6C
S214003D700BF022FFF0B5027883B0472A0D461F46A7
S214003D801ED00023274C0193236820469B68984743
S214003D9080B10226019B1B6801932B6821462846AA
S214003DA01C6901AA0123A04730B13046019B3B6045
S214003DB003B0F0BD0126F0E70646304603B0F0BD7E
S214003DC043784E2BDDD18378552BDAD1C378432B3D
S214003DD019D0C378432BD4D10379432BD1D143795F
S214003DE02B2BCED183792B2BCBD1C379012BC8D8E3
S214003DF004D050F8204C58300190C5E750F8200CFD
S214003E0050F8784CF8E70379462BE2D143794F2BEC
S214003E10DFD18379522BDCD1C379002BD9D1019322
S214003E20014CB1E7900601008806010010B5044673
S214003E3000F06AF82378A4F12002472B04D08368A8
S214003E4023BB8260012010BD63784E2BF7D1A37888
S214003E50552BF4D1E378432BF1D12379432BEED1C4
S214003E6063792B2BEBD1A3792B2BE8D1E379012BAC
S214003E70E5D854F8043C0133012B44F8043CE1D166
S214003E80836844F8083C8260012010BDFFF762FC9E
S214003E9008B500F039F8836883B393F82020472AE2
S214003EA004D00022826003F1200008BD93F8212090
S214003EB04E2AF6D193F82220552AF2D193F82320E1
S214003EC0432AEED193F82420432AEAD193F82520FA
S214003ED02B2AE6D193F826202B2AE2D193F8272026
S214003EE0012ADED8DA69013ADA61002ADBD100223B
S214003EF0996981609A6103F1200008BDFFF72AFCEA
S214003F0000487047441500100048704744150010DC
S214003F10704700BF004870477406010010B504469D
S214003F200421FFF7D9F8204610BD00BF0378472BC1
S214003F3001D00020704743784E2BFAD18378552B5A
S214003F40F7D1C378432BF4D10379432BF1D14379CE
S214003F502B2BEED183792B2BEBD1C07901288CBF8C
S214003F6000200120704700BF10B530B10446FEF7B0
S214003F7095FF2046FFF7DAFF08B9FFF7EBFB54F88A
S214003F80140CFFF7D3FB00BF2DE9F04F85B00246B7
S214003F90FFF7CCFF68B152F8184C104652F8145C84
S214003FA0966A176BD2F83490FEF778FF2046FFF734
S214003FB0DBFB1046FEF772FFFFF7DAFBFEF76EFF3D
S214003FC0FFF7C8FBFEF76AFFFFF79AFF036893F850
S214003FD02720012A37D003F178024FF000084C461C
S214003FE0C1460DF1100A203327F0030B01934AF85F
S214003FF0082DB1451BDA276807B12744534600222F
S21400400039460198FFF7B6FE10BB3B6804AA1B6949
S21400401042F8040D0093384601231149009FB84723
S214004020002818BF804609F101095C44E1E7B8F1B1
S214004030000F0AD00420FEF755FE0A4B0A4A03601A
S2140040400749FEF7B3FE1A68C7E72846FFF76EFB78
S214004050FEF7ECFEFEF762FFFEF760FFFFF784FE5A
S214004060980601001C070100113F000021F00041E6
S214004070704700BF08B5062002F048F801200BF094
S214004080B7FF00BF13460A460146022005F0E6BF0A
S214004090014B1868704700BFDC00001070B559B1BE
S2140040A005460C4610B1836B002B3CD0636ED807D8
S2140040B005D5B4F90C302BB90026304670BDA3895F
S2140040C099053CD52146284600F052F8E36A064694
S2140040D033B1E169284698470028B8BF4FF0FF364D
S2140040E0A3891A0622D4216B41B104F140039942F8
S2140040F002D0284600F01AFB00232363616C21B12E
S214004100284600F013FB0023636400F00BFA00223D
S214004110636EA281DB070ED5A06D00F087FF00F06E
S21400412007FA304670BD00F079F9BFE721692846E6
S21400413000F0FCFAD7E7A06D00F07CFFECE7A06D7E
S21400414000F076FFB4F90C30002BBBD1666E16F08B
S2140041500106B1D1A06D00F06DFF304670BD00BF06
S214004160024B01461868FFF799BF00BFDC0000103D
S214004170B1F90C302DE9F0419AB20D461107804690
S2140041803AD46A6843F40063002AAB8170DDAC6AF7
S214004190002C4AD000229BB2D8F80060C8F8002055
S2140041A013F4805268D02A6D5F0705D569682B6BBB
S2140041B0521A0BB1EB6BD21A0023E9694046A047AE
S2140041C0441C3DD00021B5F90C302A6923F4006365
S2140041D0AB81DB0469602A6048D4296BC8F80060AC
S2140041E019B305F14003994202D0404600F09EFA0A
S2140041F000202863BDE8F0812E69B6B1910718BF8C
S21400420000232C6808BF6B692E60A41BAB600AE015
S214004210234632466F6AE9694046B8470028A4EB51
S2140042200004064404DD002CF2DC0020BDE8F0812A
S214004230AB894FF0FF3043F04003AB81BDE8F0811F
S214004240D8F800401D2CF3D8164BE340DB4313F0A0
S2140042500103EDD1B5F90C20296922F40062AA8188
S214004260D2046B602960B8D5002CB6D12865B4E7B7
S214004270EA6B002A8BDCD8E70123E9694046A047B1
S214004280431C024602D0AB89AC6A8DE7D8F80030F2
S214004290002BF8D01D2B01D0162BC9D1C8F8006012
S2140042A0C3E700BF0100402038B50D46044608B1FC
S2140042B0836BBBB1B5F90C0088B16B6EDB0701D41C
S2140042C0810517D520462946FFF752FF6B6E044638
S2140042D0DA0702D4AB899B0507D5204638BD0446CD
S2140042E0204638BD00F09AF8E4E7A86D00F0A2FE7C
S2140042F0204638BDA86D00F09BFEE3E720B1054BD5
S21400430001461868FFF7D0BF034B0449186800F051
S2140043103BBE00BFDC00001028070100A9420000D9
S21400432038B51A4B04461D680DB1AB6BDBB1636E36
S214004330D80702D4A389990519D56368013B002BD9
S21400434063601CDB23685A1C22601D78636EDA07E4
S21400435002D4A3899B0501D5284638BDA06D00F080
S21400436069FE284638BD284600F058F8DFE7A06DFD
S21400437000F05EFE6368013B002B6360E2DA2846CD
S214004380214601F097FD0546E0E700BFDC0000107F
S214004390014900F0F9BD00BF9D400000002310B5A4
S2140043A004468181C2810360436083604366036183
S2140043B043618361194608225C3001F087FA07489A
S2140043C00749084A084B2062E4616162A262E36220
S2140043D004F15800BDE8104000F026BEED61000074
S2140043E015620000516200007162000070B5682519
S2140043F04A1E05FB02F50E4605F1740100F0A4FE08
S214004400044640B100210C30666005F16802216068
S214004410A06001F05BFA204670BD00BF10B50446F0
S214004420144800F005FEA26BFAB90320124904F501
S2140044303B73C4F8E832C4F8E022C4F8E402E1634F
S21400444060680421FFF7AAFFA06801220921FFF790
S214004450A5FFE06802221221FFF7A0FF012305480E
S214004460A363BDE8104000F0E5BD0248BDE810407B
S21400447000F0E0BD981500109143000070B50646A8
S214004480264800F0D5FD264B1D68AB6B002B33D0BD
S21400449005F538756B68AC68013B05D528E0013B2F
S2140044A05A1C04F1680423D0B4F90C20002AF6D173
S2140044B000254FF6FF720123E281A38104F1580024
S2140044C0656600F0B1FD154800F0B4FD2560A560F6
S2140044D0656025616561A5612946082204F15C00D6
S2140044E001F0F4F9256365636564A564204670BD34
S2140044F02C682CB12546CDE72846FFF78FFFC7E787
S21400450004213046FFF772FF044628600028F1D1E8
S214004510024800F08FFD0C233360E7E7AC1500106F
S21400452028070100014800F083BD00BFAC1500104D
S214004530014800F07FBD00BFAC1500101346F0B573
S21400454083B00F4601AA1946064606F0DDFD002890
S2140045502FD005463046FFF791FF0446002828D0A6
S21400456039464FF4DB73019A304601F009FA071E0C
S21400457030DB636EDB0715D51C491D481D4A1E4BF4
S2140045806162E905E781A581E4612062A262E362D7
S21400459013D4636EDA0702D4A3899B0514D520468C
S2140045A003B0F0BDA3899805E6D4A06D00F040FDE9
S2140045B0E2E70024204603B0F0BD30460223002286
S2140045C0214600F099F9E4E7A06D00F033FD20469F
S2140045D003B0F0BD0025FFF7A5FFA581A06D00F094
S2140045E025FD2C46FFF7A4FFD9E700BF15620000A3
S2140045F0ED6100005162000071620000024B0A4645
S21400460001461868FFF79ABFDC0000100EB430B5FC
S21400461082B005AC54F8042B054D014623462868A5
S214004620019404F011F902B0BDE8304003B07047C1
S214004630DC000010144B70B51D6806460C460DB124
S214004640AB6BC3B1636ED80702D4A389990516D5A0
S21400465028462246314601F0A9F9636E0546DA0778
S21400466002D4A3899B0501D5284670BDA06D00F035
S214004670E1FC284670BD2846FFF7D0FEE2E7A06DB5
S21400468000F0D6FCE4E700BFDC000010F8B50C46EE
S214004690234F064601F068F9BB68C4F57E615D6885
S2140046A00F3125F00305294421F47F6121F00F0125
S2140046B0A1F58054B4F5805F07DB0021304601F099
S2140046C013FCBB682B44984204D0304601F052F9E4
S2140046D00020F8BD6142304601F006FC01300DD0E6
S2140046E0104BBA6819682D1B45F001053046091BAA
S2140046F05560196001F03EF90120F8BD00213046F2
S21400470001F0F2FBBA68831A0F2BDEDD064C054972
S214004710246843F00103001B53600860D5E700BF20
S214004720080500105015001010090010002944D08C
S2140047302DE9F0410D46804601F016F955F8047C47
S2140047406949A5F1080427F00103E2188E6850684D
S214004750B24220F003005ED0FE0750600BD455F83E
S214004760087C01F1080EE41BA5683B4475456DD036
S214004770E768EF60BD6015186D68ED073ED543F03D
S21400478001026260E350B3F5007F17D20122DB0816
S21400479098104D68134451F83370824001EBC30003
S2140047A02A430838E060A7604A6041F83340FC605E
S2140047B04046BDE8F04101F0DDB870475A0A042AC9
S2140047C052D89A0902F13907FF0002F13805C819D4
S2140047D0CA59083890424FD0516821F003018B42E5
S2140047E032D292689042F7D1C368A060E3609C60C2
S2140047F0C4604046BDE8F04101F0BCB895683B4F48
S2140048000344BD4240D0D06843F00102E8608560B2
S2140048106260E350B7E7FF07034407D455F8085C27
S214004820641BE268A0682B44C2609060304A43F084
S21400483001001268606093428C60B9D32D4B4046ED
S2140048401968FFF723FFB3E71046CDE7111849684C
S214004850C90744D491680344D26843F00100CA6093
S21400486091606060E350A3E7142A16D802F15C0753
S214004870FF0002F15B05AAE70123AA104D689340EA
S2140048802B434B600346B0E743F001024C610C61DA
S214004890E560A5606260E3508AE7542A06D81A0BE2
S2140048A002F16F07FF0002F16E0590E7B2F5AA7FEE
S2140048B006D8DA0B02F17807FF0002F1770586E7E3
S2140048C040F25450824206D89A0C02F17D07FF004F
S2140048D002F17C057BE74FF47E777E2577E743F091
S2140048E001016160136063E7080500101005001001
S2140048F0140900108015001000F000B82DE9F04FE4
S2140049000C4691B091461F46064610B1836B002BAD
S21400491067D0636E13F0010FA38902D19D0540F1A5
S214004920B18003F48473B3F5847F00F0B580D4F8C7
S2140049302880B8F1000F00F0B980012F38D0022F80
S2140049400ED06FB11622636E3260D90702D4A389E7
S2140049509A0529D54FF0FF35284611B0BDE8F08FEF
S2140049604FF0000A55462369002B00F02D8140F6D3
S2140049701A01B4F90C309AB20A4208D1520539D459
S214004980A74A904500F0258143F40063A3812146A1
S2140049903046FFF789FC002800F09A80636ED9073E
S2140049A0D8D4A3899A05D5D4A06D00F043FBD1E7EF
S2140049B021463046FFF778FCA38913F4805200F0B6
S2140049C0E180256D5F0778D4180740F1D380226810
S2140049D023690AB1D21A1544A9444FF0010A0027E8
S2140049E0C2E7FFF71BFD94E74FF48062A389E264F9
S2140049F01343A381002F40F0CE80CB46BAF1000FC0
S214004A0040F0BA80A389DB0440F1F780206D62682D
S214004A10216B851A9646002900F0FA80E36BED1AA2
S214004A2015442069A26B121AAD1A1344AB456CDB11
S214004A30EA185A4569D9ABEB050528445B1B84E8A0
S214004A40090041B104F14003994202D03046FFF715
S214004A506DFE002323630822A38923F02003A3818D
S214004A60002104F15C0000F031FF656E15F00105D1
S214004A7003D1A3899B0540F1A3800025284611B0E9
S214004A80BDE8F08FA06D00F0D3FAA38903F4847319
S214004A90B3F5847F7FF44BAF21463046FFF704FC26
S214004AA0D4F82880B8F1000F7FF447AF1D22636E5C
S214004AB03260D8077FF54BAF4CE7D4F804E0236BA1
S214004AC0A5EB0E05002B55D0E26B2369AD1A83E7E4
S214004AD03B464A46E1693046C04701303FF45EAF88
S214004AE0216B41B104F14003994202D03046FFF7F2
S214004AF01DFE002323630021A389226923F4026399
S214004B002260A38161600822ABE7E56C00236D425A
S214004B1005EA0B052A46E1693046C04701303FF4F6
S214004B2036AF00222369216B6260236041B104F135
S214004B304003994202D03046FFF7F8FD0023236376
S214004B40A389BBEB050B23F02003A38110D02146DD
S214004B50304601F023F900287FF419AF63689B45BF
S214004B603FF615AF2268A3EB0B035A4484E80C000B
S214004B70082275E723692FE7216B002946D0626873
S214004B80E36B4DE7E1693B463046C047411C0546AE
S214004B900ED0A38916E701AAB4F90E10304600F02D
S214004BA041F800287FF4F3AE059B09EB030B25E7DD
S214004BB0636EDA073FF5CEAEA3899B053FF5CAAE16
S214004BC0A06D00F037FAC7E62146304600F062FADC
S214004BD0CDE6B4F90E100029FFF6D6AE01AA30468F
S214004BE000F020F830B9029B03F47043B3F5004F91
S214004BF03FF4FAAEB4F90C30C6E652460123E1693A
S214004C003046C047451C7FF402AFC0E6D4F804E047
S214004C102368206900211B1AED1A734406E700BFBB
S214004C205162000070B50D460023074C064611463B
S214004C3028462360FCF792FC431C00D070BD236816
S214004C40002BFBD0336070BDB01500109368002BAE
S214004C5071D02DE9F04F8B8983B00C461907009070
S214004C60164625D522691AB313F0020035682BD0F4
S214004C704FF00009B0464F46DFF8C0A2002F55D0CF
S214004C8057453B464A4628BF5346E1690098666A40
S214004C90B047002856DDD8F8083081441B1A3F1A62
S214004CA0C8F80830002BE9D1002003B0BDE8F08F2B
S214004CB02146009805F06EF9002840F03581A3895A
S214004CC0356813F00200D3D113F0010944D14F46E2
S214004CD0019637B39A05D4F8088040F18580474599
S214004CE0C346C0F0AD8013F4906F40F0AE80BA4675
S214004CF020685A46494600F085FDA2682368A2EB64
S214004D0008025B44A2602360019AD1449368A7EB33
S214004D100A07A3EB0A039360002BC5D0A389002FD4
S214004D20D8D1D5F800906F680835D2E7D5F800904E
S214004D306F680835A2E70020704721460098FFF705
S214004D40B3FA78B3B4F90C304FF0FF3043F04003B9
S214004D50A38103B0BDE8F08F814633464E46A84691
S214004D609A464D4656B3002832D0B145CB4628BFAA
S214004D70B346206823695F469842626904D9A368EF
S214004D8013449B4500F3A88093454DDB1346676AA2
S214004D902A46E1690098B847071ED3DDB9EB070934
S214004DA0CBD00120DAF808303D44DB1BF61BCAF8EE
S214004DB00830002B3FF478AF002ED4D108F108035A
S214004DC053F8046C984653F8085C0833002EF7D066
S214004DD032460A21284600F059FC002800F0A1803F
S214004DE00130A0EB0509C0E720682369984202D885
S214004DF063699F425DD2B84528BFB84649464246D9
S214004E0000F000FDA3682268A3EB08034244A360F9
S214004E1022600BB1C24677E721460098FFF744FAB6
S214004E2000288FD1C2466FE75A46294600F0EAFCB2
S214004E30A2682368A2EB0B025B44A2602360ADE786
S214004E40B846BA46BB46206853E7626920682169BF
S214004E5002EB4208A0EB010A08EBD8780AF1010041
S214004E604FEA680838444045424684BF804642467A
S214004E705B0544D51146009800F066F98346002885
S214004E8055D05246216900F047FCA38923F490636D
S214004E9043F08003A3810BEB0A00A8EB0A03C4F8D7
S214004EA010B0C4F814802060A360B846BA46BB466B
S214004EB01FE76FF00042BA4228BF3A4692FBF3F271
S214004EC0E16903FB02F300984A46666AB047B0F110
S214004ED0000A3FF719AF35E71A462946019300F056
S214004EE091FC2268019B21461A4422600098FFF735
S214004EF0DBF9019B00287FF425AF1F464EE700989C
S214004F0000F08CFD83460028C5D1009D2169284607
S214004F10FFF70CFC0C22B4F90C302A6023F0800357
S214004F2012E706F1010920E74FF0FF30BDE60C223C
S214004F300099B4F90C300A6006E700BF00FCFF7F5A
S214004F402DE9F04110F538771AD0884600267D689E
S214004F50BC68013D0ED4A389013D012B06D9B4F9E6
S214004F600E30013302D02046C04706436B1C04F1C6
S214004F706804F0D13F68002FE9D13046BDE8F081E3
S214004F803E463046BDE8F0812DE9F84310F5387608
S214004F901ED0884607464FF000097568B468013D84
S214004FA010D4A389013D012B08D9B4F90E30013382
S214004FB004D021463846C04749EA00096B1C04F174
S214004FC06804EED13668002EE7D14846BDE8F8837F
S214004FD0B1464846BDE8F88370B50F4E0F4D761BB8
S214004FE0B61018BF002405D0013455F8043B984786
S214004FF0A642F9D10A4E0B4D0AF0FCFF761BB610FE
S21400500018BF002406D0013455F8043B9847A64242
S214005010F9D170BD70BD00BF880A0010880A001064
S2140050209C0A0010880A0010704700BF704700BF37
S214005030704700BF704700BF70B50C46B1F90E1040
S21400504090B0002915461E4614DB01AAFFF7EAFDBC
S21400505000280FDB029A4FF4806302F47042A2F538
S2140050600052B2FA82F24FF40060520932602B60AE
S21400507010B070BD0023A289336012F0800004D007
S214005080402218462A6010B070BD4FF480632B6033
S21400509010B070BD8A890B46920706D5012103F130
S2140050A0430259611A601A617047F0B583B001ABCC
S2140050B06A460C460646FFF7BFFF0099054630468F
S2140050C000F042F8B4F90C30D8B19DE80600154F50
S2140050D043F08003F763A3812060206161611AB901
S2140050E02B43A38103B0F0BD3046B4F90E1006F092
S2140050F047F8A0B1A38923F0030343F001031BB2D2
S214005100EEE79A05EED4012123F0030304F14302EF
S21400511043F00203A381616122602261E2E7B4F9F1
S2140051200C30DDE791430000024B0146186800F0A2
S2140051300BB800BFDC000010024B01461868FFF7F2
S214005140F5BA00BFDC0000102DE9F04F01F10B06A8
S214005150162E83B0054640F29E8036F0070600F114
S214005160BD80B14200F2BA8000F0FEFBB6F5FC7FCF
S214005170C0F08582730A00F0B880042B00F26C81C0
S214005180B30903F1390003F1380EC100B84F3944B2
S2140051904C680839A14206D10CE0002A80F2AB80A8
S2140051A0E468A14206D0636823F003039A1B0F2A23
S2140051B0F3DD70463C69DFF8CCE2744500F09E8172
S2140051C0636823F003039A1B0F2A00F38381002AE7
S2140051D0C7F814E0C7F810E080F29180B3F5007FBE
S2140051E080F054810122DB0879684FEAA30C13444F
S2140051F057F8338002FA0CF207EBC30C0A43ACF103
S2140052000801E160C4F808807A6047F83340C8F8BF
S2140052100C40012483109C4094427DD8144206D151
S21400522020F003006400144200F10400FAD007EBFB
S214005230C009CC468046DCF80C309C4507D15FE1BF
S214005240002A80F26D81DB689C4500F05981596820
S21400525021F003018A1B0F2AF2DDDC68D3F808C0B0
S21400526046F0010828461E4442F00105C3F80480B3
S214005270CCF80C40C4F808C07E613E61C6F80CE06D
S214005280C6F808E075605A50009300F073FB009B68
S21400529003F108041EE0102920D800F065FB102654
S2140052A018230220724F3B445C68A3F10802944224
S2140052B000F02F816368E16823F0030323445A68F3
S2140052C0A66842F00102F16028468E605A6000F03F
S2140052D051FB0834204603B0BDE8F08F00240C23B1
S2140052E020462B6003B0BDE8F08F40204FF40071DD
S2140052F04FF03F0E4AE723445A68E168E0E723444C
S2140053005A68284642F001025A60083400F032FB20
S214005310204603B0BDE8F08FBC68636823F003083E
S214005320B04504D3A8EB06030F2B00F38580DFF807
S2140053305891504BD9F800201B680132334404EBD7
S214005340080A00F0548103F580530F3323F47F6B73
S2140053502BF00F0B5946284600F0C6FD411C0246AE
S21400536000F0FB80824500F2F680434B19685944F2
S214005370196000F04C81D9F8000001301BBFA2EB89
S2140053800A0A5144C9F80020196012F0070100F01B
S2140053901481C1F10800C1F580510244083102EBC6
S2140053A00B09C9F30B09A1EB0909494628460193E5
S2140053B0009200F099FD431C9DE80C0000F042812D
S2140053C0801A484440F001001968BC424944BA605B
S2140053D01960506017D0B8F10F0F40F2FA804FF006
S2140053E0050C6268A8F10C0020F0070002F001022C
S2140053F004EB000E02430F286260CEF804C0CEF81D
S21400540008C000F216811D4BBC681A68914288BF1E
S21400541019601B4B1A689142626888BF196022F0B7
S21400542003029642A2EB060301D80F2B04DC2846A3
S21400543000F0A0FA00244DE746F0010243F0010315
S214005440264462602846BE600834736000F092FA14
S214005450204603B0BDE8F08F142B70D9542B00F211
S214005460A280330B03F16F0003F16E0EC1008DE6D0
S2140054700805001080150010501500107815001053
S2140054807C15001010050010100900105A0A042A96
S2140054905BD9142A00F2AE8002F15C01C9005B32CF
S2140054A007EB010C7958ACF1080C8C4500F08880AD
S2140054B04A6822F00302934273D289688C45F7D17A
S2140054C0DCF80C307A68E360C4F808C09C60CCF85E
S2140054D00C409EE646F0010C42F001012644C4F85A
S2140054E004C028467E613E61C6F80CE0C6F808E0B7
S2140054F07160E25000F03EFA0834EBE67A6888E61F
S21400550008F1010818F0030F0CF1080C7FF493AEB5
S2140055102DE0DC68A34208BF02303FF44BAEC9E67C
S2140055201C4619444A68DB6854F8086F42F00102CA
S2140055304A602846F3609E6000F01CFACAE603F153
S2140055405C0003F15B0EC10020E69A0902F1390106
S214005550C9003832A4E7BC4254D0BC68626822F066
S21400556003025EE759F80839994540F0868010F046
S214005570030F00F1FF30F5D17B6823EA04037B605C
S21400558064009C423FF6C8AE002C3FF4C5AE1C42F9
S21400559040467FF44CAE64001C4200F10400FAD092
S2140055A045E68C468CE7B3F5AA7F15D8F30B03F1D6
S2140055B0780003F1770EC100E8E54FF48051EEE67F
S2140055C001217B68921001FA02F21A437A60634660
S2140055D079E7012353602AE740F25452934222D8D7
S2140055E0B30C03F17D0003F17C0EC100CEE503F1A0
S2140055F0100BAFE6542A29D81A0B02F16F01C90026
S2140056006E324DE7204B196859441960B3E6CAF369
S2140056100B0000287FF4AFAE08EB0B03BA6843F02C
S21400562001035360EFE67F204FF47E714FF07E0E4D
S214005630ACE504F1080128460093FFF777F8009BD5
S2140056401968E0E601204FF00009BDE6B2F5AA7F32
S21400565005D8DA0B02F17801C900773220E740F26C
S21400566054518A4205D89A0C02F17D01C9007C3259
S21400567016E74FF47E717E2212E77B6880E7F0081B
S21400568006F108030EE600BF50150010830770B43D
S214005690CDB23DD0541E0AB30378AB421FD0431C94
S2140056A005E014F1FF3419D30278AA4217D013F09C
S2140056B0030F184603F10103F3D1032C11D84CB3A2
S2140056C00378AB420BD00444431C02E00278AA42A3
S2140056D005D09C42184603F10103F7D1002070BCA8
S2140056E07047090289B2294341EA01410368064628
S2140056F04B40A3F1013222EA030313F0803F00F18E
S214005700040003D1043C032CF0D8D8E73046D7E792
S2140057101446D2E72046E2E7844641EA000313F047
S214005720030349D1403A23D30B6803604B684360B8
S2140057308B688360CB68C3600B6903614B69436108
S2140057408B698361CB69C3610B6A03624B6A4362F0
S2140057508B6A8362CB6AC3620B6B03634B6B4363D8
S2140057608B6B8363CB6BC36340304031403ADBD2F4
S21400577030320BD30B6803604B6843608B688360E2
S214005780CB68C36010301031103AF3D20C3205D318
S21400579051F8043B40F8043B043AF9D2043208D0EE
S2140057A0D2071CBF11F8013B00F8013B01D30B8860
S2140057B003806046704700BF082A13D38B07B1D01A
S2140057C010F00303AED0C3F10403D21ADB071CBFEC
S2140057D011F8013B00F8013BA4D331F8023B20F856
S2140057E0023B9FE7043AD9D3013A11F8013B00F88F
S2140057F0013BF9D20B7803704B7843708B7883703B
S214005800604670478842F0B50DD98B1898420AD288
S2140058108418002A51D0224613F8014D994202F806
S214005820014DF9D1F0BD0F2A48D941EA00039B0784
S21400583046D1154600F1100401F1100353F8106C20
S214005840103D44F8106C53F80C6C0F2D44F80C6C9B
S21400585053F8086C04F1100444F8186C53F8046C00
S21400586003F1100344F8146CE8D8A2F1100323F0F7
S2140058700F0302F00F0E1033BEF1030F194403445A
S21400588021D90E4674461D1F56F8047B043C032C93
S21400589045F8047FF8D8AEF1040424F00304043479
S2140058A02144234402F0030262B1013B0A4411F88A
S2140058B0014B8A4203F8014FF9D1F0BD0346F3E7E6
S2140058C00346F2E7F0BD7246EEE700BF70B4860707
